S01600005241344C315F50726F6A656374372E737265635D
S31500000000B805002095090000AD0700009109000021
S315000000109109000091090000910900009109000072
S315000000200000000000000000000000009109000030
S3150000003091090000000000009109000091090000EC
S315000000400348044B834202D0034B03B11847704761
S31500000050080000200800002000000000064B0749A9
S31500000060C91A891048BF0131491003D0044B0BB19E
S3150000007001481847704700BF08000020080000200C
S315000000800000000010B5064C237843B9FFF7D8FFEF
S31500000090044B13B10448AFF300800123237010BD55
S315000000A02000002000000000600C000008B5054B91
S315000000B01BB105490548AFF30080BDE80840FFF7CE
S315000000C0CDBF00BF0000000024000020600C00002F
S315000000D008B50849084800F00FF920B9BDE80840FE
S315000000E0054800F0C9B81421044B054A054800F03C
S315000000F029FB00BF480B000044000020140B000041
S315000001003C0B0000280B0000022800D07047024973
S31500000110024800F0A7B800BFA40B00003C00002076
S3150000012008B5FFF7D5FF002008BD00BF2DE9F8434D
S315000001300388BBB107464FF00008DFF8789000242B
S315000001401B4D4FEAC8067B6835F8022B991989883A
S31500000150914209D00134032CF5D13B8808F10108FE
S315000001604345ECD8BDE8F8839B5904F1200203F01F
S31500000170B853B3F1807F19F812300CD0DB09E9D0FF
S3150000018019F81230012123F08003C82009F8123033
S3150000019000F0E0FADEE7DB09DCD119F812300121C4
S315000001A043F08003C82009F8123000F0D3FAD1E7F3
S315000001B0D00B000000300840F8B50646FFF7B6FF42
S315000001C0EFF31082012383F31088234F3B681BB99A
S315000001D02249CB704023CB703B6801333B6082F3EE
S315000001E01088338823B300211D4D08E01B011344FA
S315000001F045F82340328801318BB29A4218D9736888
S3150000020053F8314003EBC1029288E0034FEA122310
S31500000210D2B2EBD502EB031055F820E024F4803C73
S315000002202EF4803E45F820E01B0145F820C0DEE7AD
S31500000230EFF31082012383F310883B6813B13B6808
S31500000240013B3B603B681BB980200449CB70C870FA
S3150000025082F31088F8BD00BFA400002000FD014015
S3150000026000F8014008B5034B03600846FFF7A4FFFA
S31500000270002008BD54524F5003460020D3E9022304
S3150000028053607047002800DA704700F0ADBA00BF2F
S3150000029030B48C6E01342AB1944203D930BC013A91
S315000002A01A607047029D496B0078ED0754BF01F054
S315000002B01F01C1F30441032808D9090981F001018E
S315000002C06AB9A1B930BC02225A60704701F00C012C
S315000002D0A1F10401B1FA81F14909002AF1D0944251
S315000002E001D80029EED130BC03225A607047002C99
S315000002F0E8D0F8E7FFFFFFFF4FF0010C2DE9F043D0
S3150000030000270A7C41600CFA02F212F0030FC26069
S315000003100CBF62463A4602740A7C8B4B0D46134468
S315000003201B0283604B69044643618B6985B0C0E953
S315000003300673CE69EFF310808CF310884FF00041FE
S315000003402A7C824BD1401A6922EA01021A611B6992
S3150000035080F310884FF42542A36800201A60A36832
S315000003609FED777BDF62A368DF63A3689F642A78CB
S315000003702B7A032A4FF00042A7684FEAC35308BFFF
S3150000038043F480336968FB62A36801391A61A36884
S315000003905A61A3689A61A3685862A3689862A368C1
S315000003A0B269DA61A368F2691A62A3689966A368FA
S315000003B059662B788DED027BB76B002B40F0898058
S315000003C04FF0010903206A68D4F808805208013A00
S315000003D00292C8F85420A1688A652978032903D9AE
S315000003E0A168CA65A1680A66B26BD2B93278AAB1A9
S315000003F02A787178022A4FEA811E4FEA011C00F022
S315000004009880032A03D000290CBF062209223A430A
S3150000041042EA0E0242EA0C0242F48077B278002ADF
S315000004206CD16268D26992F83010CB0705D5916A13
S31500000430A3680139D96492F830108B0703D5D26AC4
S31500000440A168013A0A650022A1688A63A168C1F819
S315000004508820B26B3AB996F8212096F820105207F8
S3150000046042EA4132174396F83020002A14BF4FF46F
S31500000470A0014FF4AA01A26811642A78012A04D1C6
S315000004800022A168CA64A1680A65A2685763A268C7
S315000004901063A268C2F83090D4E90232DA60697C4F
S315000004A0224695F91200FFF7EDFE224696F8221035
S315000004B096F92400FFF7E6FE96F92500224696F8FF
S315000004C02310FFF7DFFE0020214B236005B0BDE8B7
S315000004D0F083012BD4F8088026D000904146EA68C4
S315000004E0606802ABFFF7D4FEDDE902210B0643EAA2
S315000004F0014343F0030043F001096AE796F803C09D
S3150000050029784FEA0C12022942EA8C1213D00329E9
S3150000051004D0BCF1000F0CBF062109210A4347EAAB
S31500000520024242F080777CE7994603204FF0FF3283
S315000005304FE709226BE70921F0E700BFAFF3008020
S31500000540FFFFFFFF0000000090164000004008403B
S3150000055054504700064B074993F826001A6A51F88B
S315000005602030C2F302620449D3400B60704700BFDB
S3150000057000E0014008000020B0010020704700BFE5
S315000005802DE9F04101224AF203584FF400414FF0A1
S31500000590080C09263C4C3D4B3D4D3E48DFF808E132
S315000005A06560E5603C4FA3F8FE83826002608EF8CA
S315000005B0C82F3A4A2760A1602161626193F826201C
S315000005C0196A54F82220364DC1F30261CA402A60E6
S315000005D083F813C483F8A26093F880241AB993F8B9
S315000005E081349F074BD0294E96F88034002B3BD0A0
S315000005F00022264B83F8812483F88024234991F82E
S31500000600A030DE06C3F30010F9D4204A81F8A0001A
S3150000061092F8A030D906C3F30010F9D41B4982F82A
S31500000620320091F83C301A07FBD54FF47060002376
S31500000630164A088581F82A3092F83C309B06FBD58D
S3150000064005234FF425401749116282F8263092F8A7
S315000006502630116A54F82330C1F30261CB402B6077
S31500000660A2F8FE03BDE8F0810121C82086F88014B7
S3150000067000F070F896F88034012BFBD1B8E74FF400
S315000006807A70FFF77BFFB9E70800002000E0014021
S3150000069000127A0000700040006CDC020090D0036B
S315000006A0B00100202112002100F07E4038B500255F
S315000006B0224C0121C82084F8285000F04BF884F819
S315000006C0245094F82430002BFBD194F824301B4995
S315000006D043F0020384F8243091F82430C3F3400039
S315000006E09B07F9D4154A81F8220092F8223003F0CC
S315000006F0FF00002BF9D192F84030104960F3C71380
S3150000070082F8403091F84030DB09FBD191F8420085
S315000007100A4A63F3C71081F8420092F84230DB09B7
S31500000720FBD192F84400054963F3C71082F84400F0
S3150000073091F84430DB09FBD138BD00BF00300840DA
S31500000740704700BF00BEFEE7A0F101000028FBD104
S31500000750704700BF4FF47A7310B400FB01F1114CDF
S31500000760114A2468B2FBF4F2A1FB03043CB9B0FBC6
S31500000770F2F0800860B15DF8044BFFF7E5BF920028
S31500000780B1FBF2F1A1FB03132BB908460028F2D105
S315000007905DF8044B70474FF0FF3C5DF8044B604634
S315000007A0FFF7D2BFB001002000CA9A3B70B5002403
S315000007B00B4B0C4EB3F82021B3F84051ADB21540A7
S315000007C025FA04F3DB0704D556F82430E0B203B16A
S315000007D098470134102CF3D1014BA3F8305170BD6A
S315000007E0006000406400002010B400F1604C134C1F
S315000007F00901134BC9B20CF5614C8CF8001300F1DA
S31500000800C00144F8202053F8212022F4803243F816
S31500000810212053F82130BFF35F8F012243099B004B
S3150000082000F01F0003F1604303F561438240C3F803
S3150000083080211A605DF8044B704700BFA8000020B5
S315000008400060004030B5032083B000F077F86FF009
S31500000850FF054FF0FF311D4C002322464FF0010EDD
S315000008601B488564CDE9001104F1800532F8020FBA
S31500000870590960B102A800EB810151F8080C03F098
S315000008801F0C0EFA0CFC20EA0C0041F8080CAA42D8
S3150000089003F10103EAD1009A0E4B0D4903200A67C2
S315000008A0C3F88022019A4A67C3F8842200F016F83A
S315000008B00023094834F8022F03F1C00101330AB1BD
S315000008C040F82120AC42F5D103B030BDD60B000074
S315000008D00080004000E100E000600040EFF310817E
S315000008E0012383F31088124B33F8102092B22AB1F9
S315000008F033F81020013A92B223F8102033F8103062
S315000009009BB293B910B40B4A0B4CB2F8FE3334F8D1
S3150000091010009BB243F4254323EA0003A2F8FE33FA
S3150000092081F310885DF8044B704781F31088704797
S31500000930A801002000E00140580C000030B4EFF39D
S315000009401081012383F310880E4A32F810309BB2CF
S315000009506BB90D4C0D4DB4F8FE3335F810C09BB293
S3150000096043EA0C0343F425439BB2A4F8FE3332F862
S31500000970103001339BB222F8103081F3108830BC5E
S31500000980704700BFA801002000E00140580C00009D
S3150000099000BE704708B500F003F8FFF7C1FBFEE79D
S315000009A04FF4700270B52B4B2B4CC3F888200020F7
S315000009B09C60FFF7A9FBFFF7E3FD0120FFF7A4FB0F
S315000009C02368A3F5806383F30A882448244A002118
S315000009D0121A00F055F82348234A2449121A00F047
S315000009E057F8234D234B5B1B002B07DD00249E107D
S315000009F055F8043B01349847A642F9DCFFF7AAFDF7
S31500000A00FFF754FE0320FFF799FF00234FF6FF7010
S31500000A10194903F108020133092B21F81200F8D114
S31500000A2000240320FFF75AFF0320FFF787FF134B2D
S31500000A3003205C609C60DC601C61FFF74FFF0220B6
S31500000A40FFF762FBFFF7FEFE2046BDE87040FFF7AA
S31500000A5077BE00BF00ED00E000000000200000208F
S31500000A60B40100200000002008000020640C0000F3
S31500000A70000000200400002000FD014000000E40A0
S31500000A8002440346934200D1704703F8011BF9E77D
S31500000A900A44431E914200D1704710B511F8014B2C
S31500000AA0914203F8014FF9D110BDFFFF4275696C01
S31500000AB07420776974682052656E6573617320418E
S31500000AC06476616E63656420466C657869626C6500
S31500000AD020536F667477617265205061636B61673E
S31500000AE0652076657273696F6E20352E382E30005C
S31500000AF0352E382E3000000000000805F8B500BF7E
S31500000B00F8BC08BC9E467047F8B500BFF8BC08BCE8
S31500000B109E4670474653505F5355434345535320B3
S31500000B203D3D2065727200002E2E2F7372632F6872
S31500000B30616C5F656E7472792E6300FF68616C5F2D
S31500000B40656E74727900FFFF00000000007D0000F2
S31500000B5000000000803E000001FFDF0000000000F2
S31500000B6000000000680B000001000100000000000A
S31500000B70000000000000000000000000000000006F
S31500000B8000000000000000000000FFFFDFDF0000A3
S31500000B90000000000000000000000000000000004F
S31500000BA00000000004000000B00B00000000000080
S31500000BB00000010008010000000001000003000021
S31500000BC00000010305040000000001030604000004
S31500000BD0020403040404FFFF0000000000000000FC
S31500000BE000000000000000000000000000000000FF
S31500000BF000000000000000000000000000000000EF
S31500000C0000000000000000000000000000000000DE
S31500000C1000000000000000000000000000000000CE
S31500000C2000000000000000000000000000000000BE
S31500000C3000000000000000000000000000000000AE
S31500000C40000000000000000000000000000000009E
S31500000C500000000000000000010002000800100073
S30900000C60000000008A
S30D00000C64AD0000008500000050
S3150100A100FFFFFFFFFFFFFFFFFFFFFFFFFFFFFFFF58
S3090100A110FFFFFFFF48
S3090100A134FFFFFFFF24
S3150100A200FEF1FFFFFFFFFFFFFFFFFFFFFFFFFFFF66
S3150100A210FFFFFFFFFFFFFFFFFFFFFFFFFFFFFFFF47
S3150100A220FFFFFFFFFFFFFFFFFFFFFFFFFFFFFFFF37
S3150100A230FFFFFFFFFFFFFFFFFFFFFFFFFFFFFFFF27
S3150100A240FFFFFFFFFFFFFFFFFFFFFFFFFFFFFFFF17
S3150100A250FFFFFFFFFFFFFFFFFFFFFFFFFFFFFFFF07
S3150100A260FFFFFFFFFFFFFFFFFFFFFFFFFFFFFFFFF7
S3150100A270FFFFFFFFFFFFFFFFFFFFFFFFFFFFFFFFE7
S3150100A280F8F0FFFFFFFFFFFFFFFFFFFFFFFFFFFFED
S3150100A290FFFFFFFFFFFFFFFFFFFFFFFFFFFFFFFFC7
S3150100A2A0FFFFFFFFFFFFFFFFFFFFFFFFFFFFFFFFB7
S3150100A2B0FFFFFFFFFFFFFFFFFFFFFFFFFFFFFFFFA7
S3150100A2C0FFFFFFFFFFFFFFFFFFFFFFFFFFFFFFFF97
S705000009955C
