S01700005241344C315F50726F6A65637431372E737265632B
S315000000001029002071120000AD0F00006D120000D3
S315000000106D1200006D1200006D1200006D120000DE
S315000000200000000000000000000000006D1200004B
S315000000306D120000000000006D1200006D1200003D
S3150000004025070000A1060000A1070000D507000053
S315000000504D0D000000000000000000000000000040
S31500000060000000000000000000000000000000008A
S31500000070000000000000000000000000000000007A
S31500000080000000000000000000000000000000006A
S31500000090000000000000000000000000000000005A
S315000000A0000000000000000000000000000000004A
S315000000B0000000000000000000000000000000003A
S315000000C0000000000000000000000000000000002A
S315000000D0000000000000000000000000000000001A
S315000000E0000000000000000000000000000000000A
S315000000F000000000000000000000000000000000FA
S3150000010000000000000000000000000000000000E9
S3150000011000000000000000000000000000000000D9
S3150000012000000000000000000000000000000000C9
S3150000013000000000000000000000000000000000B9
S315000001400348044B834202D0034B03B11847704760
S31500000150D4010020D401002000000000064B07490E
S31500000160C91A891048BF0131491003D0044B0BB19D
S3150000017001481847704700BFD4010020D401002071
S315000001800000000010B5064C237843B9FFF7D8FFEE
S31500000190044B13B10448AFF300800123237010BD54
S315000001A0F001002000000000FC4A000008B5054BE5
S315000001B01BB105490548AFF30080BDE80840FFF7CD
S315000001C0CDBF00BF00000000F4010020FC4A000083
S315000001D00379022B02D10122014B1A70704700BF2E
S315000001E00D0200202DE9F047B2F1000982B019DDB9
S315000001F08A460025DFF83C800C4C0D4F01EB0906C2
S315000002001AF9013B0122384601A9019300F0E4F8EE
S31500000210C8F8000000B100BE2378002BFCD056457C
S315000002202570EDD1484602B0BDE8F0870D020020EA
S315000002301C020020100200200122014B1A70704798
S315000002400C020020FFFFFFFF2DE9F04F4C494D48FF
S3150000025083B000F00BF9DFF85491C9F8000028B11B
S315000002603C21494B494A4A4800F06CFE494802F095
S31500000270C5F94949494800F0C9FCC9F8000028B148
S315000002804221414B414A424800F05CFE4449434802
S3150000029000F0B2FBC9F80000002855D134A7D7E911
S315000002A0006735A5D5E90045DFF80481DFF8ECA045
S315000002B04FF0000B5046ADF804B0ADF806B000F0B4
S315000002C063FB88F800B098F80030002BFBD01821AB
S315000002D0504601AA00F05EFBC9F80000D0BBBDF88D
S315000002E004B0584601F08CF932463B4601F01CFB3F
S315000002F022462B4601F0EEF902460B46294859469E
S3150000030002F014F9192150460DF1060200F042FBE5
S31500000310C9F8000020BBBDF806B0584601F070F9D8
S3150000032032463B4601F000FB22462B4601F0D2F94D
S3150000033002460B461C48594602F0F8F84FF47A710B
S31500000340084600F007FEB3E746210F4B0F4A104858
S3150000035000F0F8FD56210C4B0C4A0D4800F0F2FD5A
S315000003605B21094B094A0A4800F0ECFDAFF3008017
S315000003700000000000FEAF406666666666660A40DC
S31500000380884600001C020020084600007C4600004B
S315000003902046000034460000D04600004C020020F3
S315000003A0BC460000444600006046000010020020E3
S315000003B00C020020022800D070470249024800F0D3
S315000003C0D9BA00BFF44600001402002008B5FFF7B2
S315000003D03BFF002008BD00BF10B4046AA37803F0F9
S315000003E07B03A3708378046A03F00303D21A0B44D9
S315000003F0C0E90332A37843F08003A370837803F047
S315000004000303022B06D0036A0A780020DA705DF82F
S31500000410044B70470B88026A43F47E43D381002065
S315000004205DF8044B704700BFF0B5846A85B0054699
S315000004300F4694466E46B4B194E80F0086E80F0066
S31500000440EB6920461B78A760236084F804C0EB6A3A
S31500000450E3606B6A9847AC6A1CB196E80F0084E8C3
S315000004600F0005B0F0BD3446EAE700BF2DE9F843BA
S315000004700B780D46012B044600F0FE80002601276E
S3150000048003F5800303F58C531B02C4E9075326705A
S315000004906A69A3786262AA6967F30103C4E90A621A
S315000004A0A3706B78BB4214BF3A460222A37862F36C
S315000004B00103A37095F90B8095F80A90404600F069
S315000004C0D1FD404600F090FD22464946404600F0E8
S315000004D099FD95F9058095F80490404600F0C2FD17
S315000004E0404600F081FD22464946404600F08AFD1E
S315000004F095F9078095F80690404600F0B3FD404612
S3150000050000F072FD22464946404600F07BFD95F913
S31500000510098095F80890404600F0A4FD404600F09A
S3150000052063FD22464946404600F06CFDEFF310801D
S3150000053087F310884FF000412A78574BD1405A680C
S3150000054022EA01025A605B6880F31088236A9E7073
S31500000550236A1E71236A5E72236A9E72236ADE72A2
S31500000560236A5E8340F239232A7897401F4202D0DD
S315000005704022236ADA740620012340F23922216AD6
S31500000580087729788B40134266D1EB786A78A97888
S31500000590DB00022A43EA01137AD0012A0CBFE221CA
S315000005A0F221226ADBB21370236A9971E9690B7B27
S315000005B0082B69D0226A5B0003F002035373002004
S315000005C04B788A78DB01520102F02002DBB213433A
S315000005D0226A10720A78023A012A226A41D9DBB2EB
S315000005E0D3714A68236A917859705078197860F304
S315000005F001011970D1789974D979127801F0A301A3
S3150000060002F05C020A43DA710026C4E90366C4E913
S315000006100566E369EF6993F905003D7800F004FD8E
S31500000620E36905F0030593F90B0000F0FDFCE369AF
S3150000063045F0700593F9070000F0F6FCE36993F9BD
S31500000640090000F0F1FC3046226A144B95707A8955
S3150000065063602281BDE8F8834FF47842236A9A8268
S3150000066093E7FF2050700A78022A08BF43F0100370
S31500000670226ADBB2D371C7E7CA69526812781207D9
S315000006807FF5FCAE0320E5E70A22236A5A7396E754
S31500000690F22143F0400384E70040084055494353A4
S315000006A010B5EFF30384103C64B2204600F09CFCC6
S315000006B01B4B53F82400C3691B699BB1036903B143
S315000006C010BD026A0021937803F07F0343F0040310
S315000006D09370436AC160002BF2D0BDE810408022BF
S315000006E0FFF7A2BE0369026A002BEBD08378C168CC
S315000006F003F00303022B0DD00B78D3708278D0E978
S31500000700031302F003029B1A1144C0E90313002BE2
S31500000710D6D1D6E70B8843F47E43D381EEE700BFFC
S31500000720B402002010B582B0EFF30384103C64B22B
S31500000730204600F059FC194B53F82440A27802F0E9
S315000007400303022B236A0CBF198A5979A3690CBFCC
S31500000750C1F30801C9B2019143B9636AB3B1042276
S31500000760204602B0BDE81040FFF75EBE02F003026D
S3150000077001A9606902F08BF8D4E90521A37803F09A
S3150000078003031A44C91AC4E9052109B102B010BD10
S31500000790636A002BFAD00122E2E700BFB402002010
S315000007A010B5EFF303840A4B103C64B253F82400EF
S315000007B0026A937803F07B039370436A1BB10222AB
S315000007C00021FFF731FE2046BDE8104000F00CBCCA
S315000007D0B402002010B5EFF30384174B103C64B24B
S315000007E053F82400837803F00303022B036A0CBF3B
S315000007F0198A597993F804C00CBFC1F30801C9B22C
S315000008001CF0100F0CF0380206D093F81CC01CF038
S31500000810010F08BF42F0400293F804C00CF0C70C69
S3150000082083F804C0436A0BB1FFF7FEFD2046BDE81E
S31500000830104000F0D9BB00BFB40200202DE9F843F8
S315000008400388BBB107464FF00008DFF87890002414
S315000008501B4D4FEAC8067B6835F8022B9919898823
S31500000860914209D00134032CF5D13B8808F10108E7
S315000008704345ECD8BDE8F8839B5904F1200203F008
S31500000880B853B3F1807F19F812300CD0DB09E9D0E8
S3150000089019F81230012123F08003C82009F812301C
S315000008A000F058FBDEE7DB09DCD119F81230012134
S315000008B043F08003C82009F8123000F04BFBD1E763
S315000008C0B047000000300840F8B50646FFF7B6FF0F
S315000008D0EFF31082012383F31088234F3B681BB983
S315000008E02249CB704023CB703B6801333B6082F3D7
S315000008F01088338823B300211D4D08E01B011344E3
S3150000090045F82340328801318BB29A4218D9736870
S3150000091053F8314003EBC1029288E0034FEA1223F9
S31500000920D2B2EBD502EB031055F820E024F4803C5C
S315000009302EF4803E45F820E01B0145F820C0DEE796
S31500000940EFF31082012383F310883B6813B13B68F1
S31500000950013B3B603B681BB980200449CB70C870E3
S3150000096082F31088F8BD00BFB002002000FD0140F0
S3150000097000F8014008B5034B03600846FFF7A4FFE3
S31500000980002008BD54524F5003461A689B8A002027
S315000009901380704703461B68103133F8113000206E
S315000009A013807047F0B5C769054689B017B3BE46D0
S315000009B06C468C46BEE80F003E460FC49EE80F000C
S315000009C084E80F00BCE80F000FC69CE80F008EE815
S315000009D00F00AB6938469847EB694BB19C46EE462B
S315000009E0BEE80F00ACE80F009EE80F008CE80F0091
S315000009F009B0F0BD0F46ECE72DE9F047D1E9018ECD
S31500000A006A4B41F2883C1A68034608685F681C68AE
S31500000A101FFA80F97F69A4F804901C681FFA88F908
S31500000A20A4F814901C681FFA8EF9A4F808901C68A4
S31500000A3020F0C0404FEA1049A4F806901C6828F040
S31500000A40C0484FEA1848A4F816801C682EF0C04E1D
S31500000A504FEA1E4E564EA4F80AE0366A554DC6F3C6
S31500000A600268C6F3021E02FA08F222FA0EF2A5FB8B
S31500000A70025292090CFB02F2DFF840A1AAFB0242E5
S31500000A80D1E90054920C0132072A45EA040638BF20
S31500000A90072216F000540CD01D685FFA82FC85F818
S31500000AA0DEC08D6840F2011415F0005F08BF4FF4F8
S31500000AB0807475000AD51D68D2B285F8DF208A6871
S31500000AC044F40074520048BF44F002041A68A4B209
S31500000AD05482CA68002A66D0148926052ED4254673
S31500000AE0AD050DD5D67C957C35431E6886F8A65097
S31500000AF01D68D689A5F8A860158A1A68A2F8AA50B2
S31500000B001A68A2F890401A680C8AA2F880403A79CE
S31500000B106AB1B0FA80F01C68228892B222F01F02F5
S31500000B201F32121A92B22280988A02439A82224A6D
S31500000B300020DA600A681A61BDE8F0871D68A5F82A
S31500000B4090401D685689A5F89C601D689689A5F891
S31500000B509E6015681E681FFA85FCA6F894C04FEAC9
S31500000B60154C1E682CF4C04C1FFA8CFCA6F896C0D7
S31500000B701E68C5F3417586F8925055681E681FFABF
S31500000B8085FCA6F898C04FEA154C1E682CF4C04C9C
S31500000B901FFA8CFCA6F89AC01E68C5F3417586F844
S31500000BA0935015899CE71446AAE700BFC0030020AE
S31500000BB000E00140D34D62104344415283DE1B43A3
S31500000BC030B5054689B0EFF303830F4A103B5BB29D
S31500000BD052F82340EFF30380103840B200F004FAD5
S31500000BE0002163688DF802501888226AA369ADF85F
S31500000BF000008DF8081001921BB120466946FFF7E8
S31500000C00D1FE09B030BD00BFB402002000222DE99C
S31500000C10F0474F694160CB68044683610B690D4616
S31500000C20C0E907230B885B0203F1804303F5B81381
S31500000C3003604E698B78B2785B03002A70D143F467
S31500000C40507371798907317948BF43F4806300296D
S31500000C5069D043F080039BB2A382B278F178120286
S31500000C60707802F47C5201F03F0142EA010E2A79C3
S31500000C70400196F800C040EAC230EFF31089012126
S31500000C8081F31088DFF8C0802A88D8F80CA0C2F15A
S31500000C90100201FA02F22AEA0202C8F80C20D8F879
S31500000CA00C2089F310881FFA8EF847F6FF5E22683B
S31500000CB003EA0E031380236880B2A3F8108023682A
S31500000CC0D881236883F80CC073799A0730D42268D8
S31500000CD082F88A3095F90600002803DB2246697AF5
S31500000CE000F0D0F995F90700002803DB2246A97A1F
S31500000CF000F0C8F997F90700002803DB2246797A45
S31500000D0000F0C0F997F90800002803DB2246B97AFB
S31500000D1000F0B8F900200B4B2061A360BDE8F08716
S31500000D2043F410738DE73F2A08BF43F4004392E76C
S31500000D30226843F0030382F88A30084600F00AF975
S31500000D407379C4E743444152004008400020FFF74E
S31500000D5037BF00BF064B074993F826001A6A51F8B9
S31500000D602030C2F302620449D3400B60704700BFD3
S31500000D7000E00140D4010020C0030020704700BFFE
S31500000D802DE9F04101224AF203584FF400414FF099
S31500000D90080C09263C4C3D4B3D4D3E48DFF808E12A
S31500000DA06560E5603C4FA3F8FE83826002608EF8C2
S31500000DB0C82F3A4A2760A1602161626193F8262014
S31500000DC0196A54F82220364DC1F30261CA402A60DE
S31500000DD083F813C483F8A26093F880241AB993F8B1
S31500000DE081349F074BD0294E96F88034002B3BD098
S31500000DF00022264B83F8812483F88024234991F826
S31500000E00A030DE06C3F30010F9D4204A81F8A00012
S31500000E1092F8A030D906C3F30010F9D41B4982F822
S31500000E20320091F83C301A07FBD54FF4706000236E
S31500000E30164A088581F82A3092F83C309B06FBD585
S31500000E4005234FF425401749116282F8263092F89F
S31500000E502630116A54F82330C1F30261CB402B606F
S31500000E60A2F8FE03BDE8F0810121C82086F88014AF
S31500000E7000F070F896F88034012BFBD1B8E74FF4F8
S31500000E807A70FFF77BFFB9E7D401002000E001404C
S31500000E9000127A0000700040006CDC020090D00363
S31500000EA0C00300202112002100F07E4038B5002545
S31500000EB0224C0121C82084F8285000F04BF884F811
S31500000EC0245094F82430002BFBD194F824301B498D
S31500000ED043F0020384F8243091F82430C3F3400031
S31500000EE09B07F9D4154A81F8220092F8223003F0C4
S31500000EF0FF00002BF9D192F84030104960F3C71378
S31500000F0082F8403091F84030DB09FBD191F842007D
S31500000F100A4A63F3C71081F8420092F84230DB09AF
S31500000F20FBD192F84400054963F3C71082F84400E8
S31500000F3091F84430DB09FBD138BD00BF00300840D2
S31500000F40704700BF00BEFEE7A0F101000028FBD1FC
S31500000F50704700BF4FF47A7310B400FB01F1114CD7
S31500000F60114A2468B2FBF4F2A1FB03043CB9B0FBBE
S31500000F70F2F0800860B15DF8044BFFF7E5BF920020
S31500000F80B1FBF2F1A1FB03132BB908460028F2D1FD
S31500000F905DF8044B70474FF0FF3C5DF8044B60462C
S31500000FA0FFF7D2BFC003002000CA9A3B70B50024E9
S31500000FB00B4B0C4EB3F82021B3F84051ADB215409F
S31500000FC025FA04F3DB0704D556F82430E0B203B162
S31500000FD098470134102CF3D1014BA3F8305170BD62
S31500000FE00060004070020020054BC03053F82020FE
S31500000FF022F4803243F8202053F82030704700BF97
S315000010000060004010B40901064C00F16043C9B20B
S3150000101003F5614383F8001344F820205DF8044B80
S31500001020704700BFB40200200D4B00F1C00253F818
S31500001030221021F4803143F8221053F82230BFF3F6
S315000010405F8F012243099B0000F01F0003F16043FC
S3150000105003F561438240C3F880211A60704700BFE0
S315000010600060004001220649430900F01F0082404B
S31500001070203341F82320BFF34F8FBFF36F8F7047A4
S3150000108000E100E010B400F1604C134C0901134B71
S31500001090C9B20CF5614C8CF8001300F1C00144F89C
S315000010A0202053F8212022F4803243F8212053F8DF
S315000010B02130BFF35F8F012243099B0000F01F0020
S315000010C003F1604303F561438240C3F880211A604F
S315000010D05DF8044B704700BFB4020020006000407A
S315000010E030B5032083B000F077F86FF0FF054FF0BE
S315000010F0FF311D4C002322464FF0010E1B4885642C
S31500001100CDE9001104F1800532F8020F590960B1EA
S3150000111002A800EB810151F8080C03F01F0C0EFA2F
S315000011200CFC20EA0C0041F8080CAA4203F101036A
S31500001130EAD1009A0E4B0D4903200A67C3F88022B4
S31500001140019A4A67C3F8842200F016F8002309487A
S3150000115034F8022F03F1C00101330AB140F821200F
S31500001160AC42F5D103B030BD2E47000000800040F0
S3150000117000E100E000600040EFF31081012383F3FB
S315000011801088124B33F8102092B22AB133F810208F
S31500001190013A92B223F8102033F810309BB293B97B
S315000011A010B40B4A0B4CB2F8FE3334F810009BB265
S315000011B043F4254323EA0003A2F8FE3381F31088A3
S315000011C05DF8044B704781F310887047B403002024
S315000011D000E00140B847000030B4EFF3108101236E
S315000011E083F310880E4A32F810309BB26BB90D4C5F
S315000011F00D4DB4F8FE3335F810C09BB243EA0C032C
S3150000120043F425439BB2A4F8FE3332F81030013381
S315000012109BB222F8103081F3108830BC704700BFB3
S31500001220B403002000E00140B847000008B50C4AAE
S315000012300346106840B103330A4923F0030303440D
S315000012408B4205D8136008BD074908461160F2E7CE
S3150000125001F006FB0C2203461A604FF0FF3008BD72
S31500001260BC030020102500201005002000BE70479A
S3150000127008B500F003F8FFF7A9F8FEE74FF470028F
S3150000128070B52B4B2B4CC3F8882000209C60FFF7D1
S3150000129091F8FFF775FD0120FFF78CF82368A3F599
S315000012A0806383F30A882448244A0021121A01F035
S315000012B085FA2348234A2449121A01F0E8FA234DF5
S315000012C0234B5B1B002B07DD00249E1055F8043BC7
S315000012D001349847A642F9DCFFF73CFDFFF7E6FD2F
S315000012E00320FFF779FF00234FF6FF70194903F13A
S315000012F008020133092B21F81200F8D1002403203B
S31500001300FFF73AFF0320FFF767FF134B03205C60EC
S315000013109C60DC601C61FFF72FFF0220FFF74AF894
S31500001320FFF7DEFE2046BDE87040FFF709BE00BFAE
S3150000133000ED00E000000000F00100201005002094
S3150000134000000020D4010020284B0000CC01002022
S31500001350D001002000FD014000000E4081F0004158
S3150000136002E000BF83F0004330B54FEA41044FEA84
S31500001370430594EA050F08BF90EA020F1FBF54EA1F
S31500001380000C55EA020C7FEA645C7FEA655C00F0BB
S31500001390E2804FEA5454D4EB5555B8BF6D420CDD8C
S315000013A02C4480EA020281EA030382EA000083EA0F
S315000013B0010180EA020281EA0303362D88BF30BDAF
S315000013C011F0004F4FEA01314FF4801C4CEA113105
S315000013D002D0404261EB410113F0004F4FEA033364
S315000013E04CEA133302D0524263EB430394EA050FEF
S315000013F000F0A780A4F10104D5F1200E0DDB02FA5E
S315000014000EFC22FA05F2801841F1000103FA0EF2F1
S31500001410801843FA05F359410EE0A5F120050EF1B7
S31500001420200E012A03FA0EFC28BF4CF0020C43FAE8
S3150000143005F3C01851EBE37101F0004507D54FF0F5
S31500001440000EDCF1000C7EEB00006EEB0101B1F545
S31500001450801F1BD3B1F5001F0CD349085FEA30008B
S315000014604FEA3C0C04F101044FEA445212F5800F96
S3150000147080F09A80BCF1004F08BF5FEA500C50F133
S31500001480000041EB045141EA050130BD5FEA4C0C16
S31500001490404141EB0101013C28BFB1F5801FE9D273
S315000014A091F0000F04BF01460020B1FA81F308BF96
S315000014B02033A3F10B03B3F120020CDA0C3208DD62
S315000014C002F1140CC2F10C0201FA0CF021FA02F13D
S315000014D00CE002F11402D8BFC2F1200C01FA02F1AD
S315000014E020FA0CFCDCBF41EA0C019040E41AA2BFD2
S315000014F001EB0451294330BD6FEA04041F3C1CDA9A
S315000015000C340EDC04F11404C4F1200220FA04F0B9
S3150000151001FA02F340EA030021FA04F345EA030163
S3150000152030BDC4F10C04C4F1200220FA02F001FA25
S3150000153004F340EA0300294630BD21FA04F02946A7
S3150000154030BD94F0000F83F4801306BF81F4801140
S315000015500134013D4EE77FEA645C18BF7FEA655CB3
S3150000156029D094EA050F08BF90EA020F05D054EA85
S31500001570000C04BF1946104630BD91EA030F1EBF8A
S315000015800021002030BD5FEA545C05D1400049418E
S3150000159028BF41F0004130BD14F580043CBF01F581
S315000015A0801130BD01F0004545F0FE4141F4700167
S315000015B04FF0000030BD7FEA645C1ABF1946104642
S315000015C07FEA655C1CBF0B46024650EA013406BF43
S315000015D052EA033591EA030F41F4002130BD00BF02
S315000015E090F0000F04BF0021704730B54FF48064BF
S315000015F004F132044FF000054FF0000150E700BF40
S3150000160090F0000F04BF0021704730B54FF480649E
S3150000161004F1320410F0004548BF40424FF000018B
S315000016203EE700BF42004FEAE2014FEA31014FEACE
S3150000163002701FBF12F07F4393F07F4F81F060511D
S31500001640704732F07F4208BF704793F07F4F04BF68
S3150000165041F40021704730B54FF4607401F0004545
S3150000166021F000411CE700BF50EA010208BF7047A5
S3150000167030B54FF000050AE050EA010208BF704796
S3150000168030B511F0004502D5404261EB41014FF4FF
S31500001690806404F132045FEA915C3FF4D8AE4FF007
S315000016A003025FEADC0C18BF03325FEADC0C18BFEA
S315000016B0033202EBDC02C2F1200300FA03FC20FA3B
S315000016C002F001FA03FE40EA0E0021FA02F1144488
S315000016D0BDE600BF70B54FF0FF0C4CF4E06C1CEAA1
S315000016E011541DBF1CEA135594EA0C0F95EA0C0F12
S315000016F000F0DEF82C4481EA030621EA4C5123EA85
S315000017004C5350EA013518BF52EA033541F48011B3
S3150000171043F4801338D0A0FB02CE4FF00005E1FB66
S3150000172002E506F00042E0FB03E54FF00006E1FBB0
S3150000173003569CF0000F18BF4EF0010EA4F1FF04F3
S31500001740B6F5007F64F5407404D25FEA4E0E6D4133
S3150000175046EB060642EAC62141EA55514FEAC52044
S3150000176040EA5E504FEACE2EB4F1FD0C88BFBCF5C0
S31500001770E06F1ED8BEF1004F08BF5FEA500E50F171
S31500001780000041EB045170BD06F0004646EA010137
S3150000179040EA020081EA0301B4EB5C04C2BFD4EB69
S315000017A00C0541EA045170BD41F480114FF0000E62
S315000017B0013C00F3AB8014F1360FDEBF002001F0D0
S315000017C0004170BDC4F10004203C35DA0C341BDC4A
S315000017D004F11404C4F1200500FA05F320FA04F01C
S315000017E001FA05F240EA020001F0004221F0004150
S315000017F010EBD37021FA04F642EB06015EEA430EC3
S3150000180008BF20EAD37070BDC4F10C04C4F12005F2
S3150000181000FA04F320FA05F001FA04F240EA0200A5
S3150000182001F0004110EBD37041F100015EEA430E76
S3150000183008BF20EAD37070BDC4F1200500FA05F296
S315000018404EEA020E20FA04F301FA05F243EA020315
S3150000185021FA04F001F0004121FA04F220EA020024
S3150000186000EBD3705EEA430E08BF20EAD37070BD6A
S3150000187094F0000F0FD101F00046400041EB01014A
S3150000188011F4801F08BF013CF7D041EA060195F02C
S31500001890000F18BF704703F00046520043EB0303E6
S315000018A013F4801F08BF013DF7D043EA06037047D3
S315000018B094EA0C0F0CEA135518BF95EA0C0F0CD0DE
S315000018C050EA410618BF52EA4306D1D181EA030124
S315000018D001F000414FF0000070BD50EA410606BF1E
S315000018E01046194652EA430619D094EA0C0F02D163
S315000018F050EA013613D195EA0C0F05D152EA0336A8
S315000019001CBF104619460AD181EA030101F00041C5
S3150000191041F0FE4141F470014FF0000070BD41F00E
S31500001920FE4141F4780170BD70B54FF0FF0C4CF4E8
S31500001930E06C1CEA11541DBF1CEA135594EA0C0F07
S3150000194095EA0C0F00F0A7F8A4EB050481EA030E54
S3150000195052EA03354FEA013100F088804FEA03333B
S315000019604FF0805545EA131343EA12634FEA022209
S3150000197045EA111545EA10654FEA00260EF00041CA
S315000019809D4208BF964244F1FD0404F5407402D21C
S315000019905B084FEA3202B61A65EB03055B084FEAAD
S315000019A032024FF480104FF4002CB6EB020E75EBAA
S315000019B0030E22BFB61A754640EA0C005B084FEAD2
S315000019C03202B6EB020E75EB030E22BFB61A75464F
S315000019D040EA5C005B084FEA3202B6EB020E75EB9A
S315000019E0030E22BFB61A754640EA9C005B084FEA12
S315000019F03202B6EB020E75EB030E22BFB61A75461F
S31500001A0040EADC0055EA060E18D04FEA051545EA0D
S31500001A1016754FEA06164FEAC30343EA52734FEAB6
S31500001A20C2025FEA1C1CC0D111F4801F0BD141EA2F
S31500001A3000014FF000004FF0004CB6E711F4801F94
S31500001A4004BF01430020B4F1FD0C88BFBCF5E06F74
S31500001A503FF6AFAEB5EB030C04BFB6EB020C5FEA84
S31500001A60500C50F1000041EB045170BD0EF0004ED9
S31500001A704EEA113114EB5C04C2BFD4EB0C0541EA0B
S31500001A80045170BD41F480114FF0000E013C90E608
S31500001A9045EA060E8DE60CEA135594EA0C0F08BFCC
S31500001AA095EA0C0F3FF43BAF94EA0C0F0AD150EACB
S31500001AB001347FF434AF95EA0C0F7FF425AF10465E
S31500001AC019462CE795EA0C0F06D152EA03353FF486
S31500001AD0FDAE1046194622E750EA410618BF52EA03
S31500001AE043067FF4C5AE50EA41047FF40DAF52EAD7
S31500001AF043057FF4EBAE12E72DE9FF4757EC106B79
S31500001B00002F0C4619463B46B4BF07F1004300239D
S31500001B109146BFBF32461F462D231646DDF830A03C
S31500001B200B700D9B23F02008B8F1460F05D0B8F1D5
S31500001B30450F00D10134022100E0032103AB224608
S31500001B40019302AB47EC106B0093534600F044FF41
S31500001B50B8F1470F054619D119F0010F0ED000EB69
S31500001B600409002200233046394602F081FC08B100
S31500001B70CDF80C903022039B4B451ED3039B284681
S31500001B800E9A5B1B136004B0BDE8F087B8F1460FF0
S31500001B9000EB0409E5D10378302B0AD1002200239B
S31500001BA03046394602F064FC18B9C4F10104CAF89B
S31500001BB00040DAF800309944D3E7591C03911A70B3
S31500001BC0D9E7F7B500290270BABF49422D232B2366
S31500001BD00929437028DD0DF107030A271D461A4619
S31500001BE0013BB1FBF7F607FB1614303402F8014C43
S31500001BF00C463146632CF2DC3031941E03F8011C8E
S31500001C00411C2346AB420AD30DF109039B1AAC4291
S31500001C1088BF002302330344181A03B0F0BD13F83B
S31500001C20016B01F8016FEDE7302330318370031D3E
S31500001C30C170F1E72DE9F04F8DB00C4616461F46F0
S31500001C40DDF85880054600F0C1FD03681846049388
S31500001C5000F02AFE002305900A93D8F8003094F885
S31500001C6018A00733D4F800B023F0070303F10802E5
S31500001C70C8F800204FF0FF32D3E9008929F000436D
S31500001C80CDF8188007939D4BDDE90601C4E912895A
S31500001C9002F020FC70BB4FF0FF32984BDDE90601E5
S31500001CA002F0FAFB30BB002200234046494602F010
S31500001CB0E9FB10B12D2384F84330914A914BBAF1D8
S31500001CC0470F8CBF9046984603234FF000092361C7
S31500001CD02BF00403236033460BAA214628460097BF
S31500001CE000F0D2F9013040F08D804FF0FF300DB09A
S31500001CF0BDE8F08F42464B464046494602F0EAFBB5
S31500001D0040B14B46804A002BBCBF2D2384F843309C
S31500001D107E4BD4E70AF0DF02636806925A1C3BD179
S31500001D20062363604BF480620023284622600393F7
S31500001D300AABCDE901A309AB49EC108B00930DF179
S31500001D4023036168FFF7D8FE069B80460999472B57
S31500001D5029D1C81C02DB6368994241DDAAF1020A57
S31500001D605FFA8AFA0139524604F150000991FFF7E9
S31500001D7028FF0A9A81461318012A236102DC226889
S31500001D80D20701D5013323619DF82330002BA2D061
S31500001D902D2384F843309EE7069A472AC2D1002BAA
S31500001DA0C0D10123BDE7BAF1650FDBD9BAF1660FE1
S31500001DB018D1002963680BDD216113B92268D007A9
S31500001DC002D501330B4423614FF00009A165DBE71F
S31500001DD013B92268D20701D50233F4E70123F2E7EB
S31500001DE04FF0670A0A9B994205DB23682161D807F1
S31500001DF0EAD54B1CE7E70029D4BFC1F10202012254
S31500001E001344E0E723685A0507D42369424631465E
S31500001E102846B84701302BD167E7BAF1650F40F283
S31500001E20DD8000220023D4E9120102F021FB002804
S31500001E3033D00123364A31462846B84701303FF4AD
S31500001E4054AFDDE90938434502DB2368D8070FD5CF
S31500001E5031462846DDE90423B84701303FF445AF53
S31500001E604FF0000908F1FF3804F11A0AC84509DCE9
S31500001E7023689B0700F10381E0680B9B9842B8BF7B
S31500001E80184634E70123524631462846B847013002
S31500001E903FF42BAF09F10109E8E7099B002B39DC78
S31500001EA001231B4A31462846B84701303FF41DAF8F
S31500001EB0DDE9093959EA030302D12368D907D7D5E1
S31500001EC031462846DDE90423B84701303FF40DAF1B
S31500001ED04FF0000A04F11A0B099B5B42534501DCE3
S31500001EE04B4693E701235A4631462846B847013008
S31500001EF03FF4FBAE0AF1010AEEE700BFFFFFEF7FFA
S31500001F00C4470000C0470000CC470000C847000097
S31500001F10D0470000A36DDDF828A05345A8BF53465F
S31500001F20002B994636DC4FF0000B29EAE97904F1DB
S31500001F301A02A36D0693A3EB09035B4531DC099BEB
S31500001F409A453ADC2368DA0737D4099BAAEB0309DA
S31500001F50069BAAEB03039945A8BF9946B9F1000F62
S31500001F6033DC4FF0000829EAE97904F11A0B099BE2
S31500001F70AAEB0303A3EB090343457FF779AF0123DC
S31500001F805A4631462846B84701303FF4AEAE08F10E
S31500001F900108ECE7424631462846B8470130C2D12F
S31500001FA0A3E60123314628460692B84701303FF49E
S31500001FB09CAE0BF1010B069ABBE7DDE90423314623
S31500001FC02846B8470130C0D18FE6069A4B463146BF
S31500001FD028464244B8470130C3D186E6DDF828A03A
S31500001FE0BAF1010F01DCDB0736D501234246314643
S31500001FF02846B84701303FF478AE31462846DDE939
S315000020000423B84701303FF470AE002200230AF1E2
S31500002010FF3AD4E9120102F02BFAC0B9534608F18F
S31500002020010231462846B84701300CD15DE601234E
S315000020305A4631462846B84701303FF456AE08F1B5
S315000020400108D045F3DB4B4604F15002DFE64FF0C2
S31500002050000804F11A0BF4E701234246E1E70123E5
S315000020604A4631462846B84701303FF43EAE08F1AD
S315000020700108E3680B995B1A4345F0DCFCE64FF078
S31500002080000804F11909F4E72DE9F04716469846C9
S315000020908A6807460B690C46DDF820909342B8BF64
S315000020A01346336091F843200AB101333360236845
S315000020B0990642BF336802333360256815F006057A
S315000020C006D104F1190AE36832689B1AAB422BDC8D
S315000020D094F843302268003B18BF0123920630D49F
S315000020E004F1430241463846C847013023D02368ED
S315000020F01A3454F80A2C03F00603042B0ABF54F8CA
S315000021000E5C002533684FF0000608BFED1A54F840
S31500002110123C08BF25EAE5759342C4BF9B1AED1829
S31500002120B5421AD1002008E00123524641463846FE
S31500002130C847013003D14FF0FF30BDE8F0870135C5
S31500002140C1E7E1185A1C30200233224481F84300CB
S3150000215094F8451082F84310C2E70123224641460F
S315000021603846C8470130E6D00136D9E72DE9FF47A2
S315000021700F7E914680460C46782F9A460C9E01F1BA
S31500002180430207D8622F0AD8002F00F0D180582FBB
S3150000219000F0B88004F1420684F842703AE0A7F1F4
S315000021A06303152BF6D801A151F823F00522000090
S315000021B019220000952100009521000095210000BC
S315000021C095210000192200009521000095210000AC
S315000021D095210000952100001723000043220000EE
S315000021E0D12200009521000095210000392300002E
S315000021F09521000043220000952100009521000052
S31500002200D922000033681A1D1B68326004F14206A9
S3150000221084F8423001239CE033682068191D316040
S31500002220060601D51D6803E04506FBD5B3F9005047
S31500002230002D03DA2D236D4284F8433058480A23D3
S3150000224011E021683368080653F8045B02D4490696
S3150000225048BFADB26F2F3360514814BF0A2308231D
S31500002260002184F843106668002EA66005DB21680D
S315000022702E4321F0040121604BD01646B5FBF3F145
S3150000228003FB1157C75D06F8017D2F460D46BB427D
S31500002290F4D9082B0BD12368DF0708D523696168B9
S315000022A09942DEBF302306F8013C06F1FF36921B49
S315000022B022614B4603AA21464046CDF800A0FFF70F
S315000022C0E3FE01304AD14FF0FF3004B0BDE8F0879D
S315000022D0236843F02003236078273248236884F874
S315000022E045701F06316851F8045B02D45F0648BF8B
S315000022F0ADB23160D90744BF43F0200323601DB15E
S315000023001023ADE72648E9E7236823F0200323607E
S31500002310F6E71646BDE733682568181D6169306023
S315000023202E061B6801D5196002E06806FBD51980E8
S31500002330002316462361BCE7336800211A1D32606C
S315000023401E686268304600F094FA08B1801B60602F
S3150000235063682361002384F84330AAE72369324681
S3150000236049464046D0470130ADD023689B0713D479
S31500002370E068039B9842B8BF1846A6E70123324699
S3150000238049464046D04701309DD00135E368039960
S315000023905B1AAB42F2DCEBE7002504F11906F5E720
S315000023A0D2470000E3470000002310B504468360CF
S315000023B0818119464366C28108228361C0E90033E0
S315000023C0C0E904335C3000F0F9F90D4B2462636216
S315000023D00C4BA3620C4BE3620C4B23630C4B9C42ED
S315000023E006D003F16802944202D0D0339C4205D154
S315000023F004F15800BDE8104000F038BA10BD00BF27
S315000024000D2600002F260000672600008B26000000
S31500002410C4030020024A0349034800F069B800BF1C
S3150000242004000020E54100001400002041680C4B28
S31500002430994210B5044601D001F0D4FEA168094BBB
S31500002440994202D0204601F0CDFEE168064B994242
S3150000245004D02046BDE8104001F0C4BE10BD00BF48
S31500002460C40300202C0400209404002010B50B4B5C
S3150000247004210B4C0B4A20461A600022FFF794FFFA
S3150000248004F1680001220921FFF78EFF04F1D00054
S3150000249002221221BDE81040FFF786BFFC0400208F
S315000024A0C403002015240000014800F0E0B900BF75
S315000024B005050020014800F0DBB900BF0505002036
S315000024C010B50446FFF7F0FF236A1BB1BDE81040C4
S315000024D0FFF7F0BF044B2362044B1B68002BF5D1BA
S315000024E0FFF7C4FFF2E700BF2D240000FC04002024
S315000024F02DE9F8430746884614460026D4E9019597
S31500002500B9F1010905D52468002CF7D13046BDE89C
S31500002510F883AB89012B07D9B5F90E30013303D007
S3150000252029463846C04706436835E9E70FB407B57C
S31500002530064904AB086853F8042B8168019301F03F
S31500002540B5FC03B05DF804EB04B070471000002042
S31500002550036A70B505460E4684680BB9FFF7B0FFEF
S31500002560636EDB0705D4A389980502D4A06D00F03D
S315000025707EF9A389190702D52369002B35D1214697
S31500002580284600F0C5F880B34FF0FF35636EDA07D2
S3150000259005D4A3899B0502D4A06D00F069F92846ED
S315000025A070BD002B04DAA2699A4217DC0A2915D0FD
S315000025B023685A1C22601970A36816F8011F013B94
S315000025C0A3600029EDD1002B11DA22460A21284604
S315000025D000F05FF80130D7D00A25D7E72246284613
S315000025E000F057F80130E7D1CEE7013EE4E7236873
S315000025F05A1C22600A221A70EEE7FFFF024B0146C0
S315000026001868FFF7A5BF00BF1000002010B50C46E4
S31500002610B1F90E1000F000F90028ABBF636DA38975
S315000026201B1823F48053ACBF6365A38110BD2DE94D
S31500002630F0411F468B8905460C46DB05164605D537
S3150000264002230022B1F90E1000F0D4F8A389324615
S31500002650B4F90E10284623F48053A3813B46BDE807
S31500002660F04100F0EBB810B50C46B1F90E1000F0D1
S31500002670C1F8431CA38915BF606523F4805343F456
S315000026808053A38118BFA38110BDB1F90E1000F0CD
S31500002690A1B8F8B50E461446054618B1036A0BB93B
S315000026A0FFF70EFFA369A360A3891A0701D5236963
S315000026B043B92146284600F02BF818B14FF0FF37F2
S315000026C03846F8BD2368F6B222693746981A636918
S315000026D0834205DC2146284601F084FD0028EDD121
S315000026E0A368013BA36023685A1C22601E70431C2A
S315000026F062699A4204D0A389DB07E1D50A2EDFD1AD
S315000027002146284601F06EFD0028D9D0D6E7FFFF06
S3150000271038B5294B05460C46186818B1036A0BB93B
S31500002720FFF7CEFEB4F90C30190722D4DA0607D427
S3150000273009222A6043F040034FF0FF30A38133E0C3
S31500002740580712D5616B41B104F14403994202D096
S31500002750284600F0FFFE00236363A38923F02403C9
S31500002760A3810023636023692360A38943F00803E0
S31500002770A38123694BB9A38903F42073B3F5007FC2
S3150000278003D02146284601F07AFDB4F90C3013F047
S3150000279001020AD00022A26062695242A261226945
S315000027A042B913F08000C5D138BD990758BF626998
S315000027B0A260F4E70020F7E7100000200244034679
S315000027C0934200D1704703F8011BF9E700487047B0
S315000027D05001002038B50023054D044608462B60FD
S315000027E001F0B6FE431C02D12B6803B1236038BD4D
S315000027F00005002038B50446064D0846114600225D
S315000028002A601A4601F0BCFE431C02D12B6803B1B4
S31500002810236038BD0005002038B50446064D08463D
S31500002820114600222A601A4601F0B2FE431C02D16C
S315000028302B6803B1236038BD0005002038B5044677
S31500002840064D0846114600222A601A46FDF7CAFCC4
S31500002850431C02D12B6803B1236038BD000500205C
S31500002860014B1868704700BF100000207047704782
S315000028707047C9B20346024410B59342184601D1C7
S31500002880002003E0047801338C42F6D110BD0A44DF
S31500002890431E914200D1704710B511F8014B914289
S315000028A003F8014FF9D110BD034613F8012B002A96
S315000028B0FBD1181A013870472DE9F74F036907460F
S315000028C00C69A342C0F28380013C00F1140501F1BA
S315000028D01408A30055F8242008EB8409009305EB9F
S315000028E08403019358F8243001339A42B2FBF3F67D
S315000028F031D34FF0000AC446AE46D3465CF8043BDB
S3150000290098B2E1454FEA134306FB00A04FEA104296
S3150000291080B206FB0323DEF8002092B24FEA134A88
S31500002920A2EB00029BB2DEF800005A44C3EB22433E
S3150000293092B203EB104342EA03424FEA234B4EF8AE
S31500002940042BDBD2009BEB582BB9019B043B9D4229
S315000029501A4630D33C61384601F072F9002826DB6E
S315000029602946002058F8042BD1F800C01FFA82FE31
S31500002970C1451FFA8CF34FEA1242A3EB0E03034440
S31500002980C2EB23429BB202EB1C4243EA02434FEAEC
S31500002990224041F8043BE5D255F8242005EB840398
S315000029A022B9043B9D421A460BD33C6101363046A0
S315000029B003B0BDE8F08F1268043B002ACAD1013C7F
S315000029C0C5E71268043B002AEFD1013CEAE7002084
S315000029D0EEE7FFFFFFFFFFFF2DE9F04FC76999B054
S315000029E08346229E09910E92139355EC104B8DED62
S315000029F0040B7FB9102000F0F7FD0246CBF81C004F
S31500002A0020B9A74BEF21A748FEF79CFAC0E901774A
S31500002A100760C760DBF81C30196859B15A68012392
S31500002A20584693404A608B6000F0D4FEDBF81C30B9
S31500002A3000221A602B1EB7BF23F000430023012299
S31500002A400593A8BF3360059F974BB8BF3260BB4361
S31500002A5012D142F20F73139A1360C7F31303234381
S31500002A6000F04685239BDFF854A2002B00F0488532
S31500002A700AF1030300F042BD9DED047B0022002312
S31500002A8051EC170B8DED0C7B01F0F2FC804658B132
S31500002A900123139A1360239B13B1844B239A13606B
S31500002AA0DFF81CA200F02CBDC7F30A5616AA17A918
S31500002AB058469DED0C0B01F077F98146002E75D036
S31500002AC00D9BA6F2FF36CDF85080C3F3130343F0F7
S31500002AD07F53DDE90C0143F4401319460022744B81
S31500002AE0FEF740FC68A3D3E90023FEF7F3FD68A3D5
S31500002AF0D3E90023FEF738FC04460D463046FEF7C0
S31500002B007FFD65A3D3E90023FEF7E4FD02460B46ED
S31500002B1020462946FEF728FC04460D4601F0F0FC47
S31500002B200022074600232046294601F0ABFC40B1AF
S31500002B303846FEF765FD22462B4601F099FC00B9A2
S31500002B40013F162F51D85B4B03EBC703DDE90C01A0
S31500002B50D3E9002301F096FC002848D0013F00236A
S31500002B601293169B9B1B5A1E46BFC3F101080023F6
S31500002B704FF00008089248BF0893002F39DB089BE6
S31500002B800F973B44089300230A93099B092B61D8AE
S31500002B90052BC5BF043B002401240993099B023B76
S31500002BA0032B63D8DFE803F05254372CDDE91663B4
S31500002BB01E4406F23243202BC9BFC3F14003C3F1C2
S31500002BC020039F4006F21243D8BF04FA03F006F131
S31500002BD0FF36C4BF24FA03F347EA0300FEF700FDFD
S31500002BE00122A1F1F873149277E70123B8E7129056
S31500002BF0B7E77B42A8EB07080A9300230F93C4E7C5
S31500002C0001230B930E9BFB1800930133012B0393B7
S31500002C10B8BF012306E001230B930E9B002B28DD92
S31500002C2000930393DBF81C000021042202F1140533
S31500002C309D4223D94160584600F08CFD824600280B
S31500002C4040D11D4B024640F2AF11DCE60023E3E71C
S31500002C500023D6E7012400230B9409934FF0FF339A
S31500002C6000220093039312230E92DBE701230B93BA
S31500002C70F4E701231A4600930393F5E70131520066
S31500002C80D4E700BFAFF3008061436F63A787D23FED
S31500002C90B3C8608B288AC63FFB799F501344D33F45
S31500002CA001480000184800000000F07FD1470000EE
S31500002CB00000F83F3049000071480000FD47000061
S31500002CC0D0470000DBF81C301860039B0E2B00F287
S31500002CD0A180002C00F09E80002F33DD07F00F024C
S31500002CE09B4BF8054FEA271403EBC20393ED007BD9
S31500002CF08DED067B16D5974B04F00F040326D3E91A
S31500002D000823DDE90C01FEF70FFECDE90401914D24
S31500002D1054B9DDE90623DDE90401FEF705FECDE938
S31500002D20040128E00226F2E7E10708D50136DDE9CD
S31500002D300601D5E90023FEF7CDFCCDE906016410B6
S31500002D400835E5E700F0AF807C42814B814D0226D5
S31500002D5004F00F02241103EBC203DDE90C01D3E9F1
S31500002D600023FEF7B7FC0023CDE90401002C40F058
S31500002D708F80002BD3D1129BDDE90445002B00F098
S31500002D8094800022744B2046294601F07BFB0028E4
S31500002D9000F08B80039B002B00F08780009B002BAC
S31500002DA034DD7B1E204600222946069301366B4BF6
S31500002DB0FEF790FC009CCDE904013046FEF720FCAE
S31500002DC0DDE90423FEF786FC0022654BFEF7CCFA0C
S31500002DD00546A1F15076002C6AD10022614BDDE94F
S31500002DE00401FEF7BFFA02460B46CDE904232A4644
S31500002DF0334601F065FB002840F087822A4606F13B
S31500002E000043DDE9040101F03DFB38BBDDE90C348C
S31500002E10CDE90434179B002BC0F258810E2F00F326
S31500002E2055814B4B03EBC70393ED007B0E9B002BA9
S31500002E308DED007B80F2E580039B002B00F3E180A3
S31500002E400CD10022474B51EC170BFEF743FCDDE992
S31500002E50042301F02BFB002800F0558200242546B0
S31500002E600E9B5646DB43069300272146584600F044
S31500002E70B1FC002D00F0BD802FB1AF4203D0394622
S31500002E80584600F0A7FC2946584600F0A3FCB0E0DF
S31500002E90E20705D50136D5E90023FEF71BFC012321
S31500002EA06410083562E7022665E7039C069784E707
S31500002EB0274B0B9903EBC403544453E9022300291F
S31500002EC054D000202849FEF72FFD334656462A46A1
S31500002ED0FEF748FACDE91001DDE9040101F010FB27
S31500002EE00546FEF78DFB02460B463035DDE904014B
S31500002EF0FEF738FA02460B4606F8015BCDE90423D5
S31500002F00DDE9102301F0BEFA002872D10020124933
S31500002F10DDE90423FEF726FADDE9102301F0B2FA13
S31500002F20002840F0B480A6423FF470AF00220B4B5D
S31500002F30DDE91001FEF7CEFB0022084BCDE91001BA
S31500002F40DDE90401FEF7C6FBCDE90401C4E700BFD5
S31500002F5030490000084900000000F03F000024400E
S31500002F6000001C40000014400000E03F3146564679
S31500002F702846FEF7AFFB1594CDE91001DDE9040103
S31500002F8001F0BEFA0546FEF73BFB024630350B461E
S31500002F90DDE90401FEF7E6F906F8015B02460B4699
S31500002FA0A642CDE904234FF0000224D1AB4BDDE964
S31500002FB01001FEF7D9F902460B46DDE9040101F0DE
S31500002FC07FFA002863D10020A449DDE91023FEF72B
S31500002FD0C9F902460B46DDE9040101F053FA00285F
S31500002FE03FF414AF159E731E159316F8013C302B53
S31500002FF0F8D0069F3BE09A4BFEF76CFBCDE9040147
S31500003000BCE7DDE90445564620462946DDE90023AE
S31500003010FEF78AFC01F074FA8046FEF7F1FADDE964
S315000030200023FEF757FB0246204608F130040B4604
S315000030302946FEF797F9039D06F8014BA6EB0A040D
S3150000304002460B46A54234D1FEF78EF904460D46DC
S31500003050DDE9002301F034FAC0B920462946DDE94E
S31500003060002301F005FA10B118F0010F0ED1494600
S31500003070584600F0AFFB002301373370139B1F60E7
S31500003080239B002B00F03C821E6039E206973346F4
S315000030901E4613F8012D392A07D19A45F8D1069A0A
S315000030A00132069230228AF800201A7801321A700C
S315000030B09FE700226A4BFEF70DFB00220023044621
S315000030C00D4601F0D5F900289ED0D0E70B9A002ACC
S315000030D000F0E180099A012A00F3C480149A002ABC
S315000030E000F0B78003F233430A9C4646089A012152
S315000030F0584698441A44089200F022FC05465EB1F0
S31500003100089B002B08DDB342089AA8BF3346A8EBFC
S315000031100308F61AD31A08930A9BF3B10B9B002BEC
S3150000312000F0BD808CB129462246584600F0C2FC0C
S315000031304A4601460546584600F018FC49460690A0
S31500003140584600F047FB069B99460A9B1A1B04D07B
S315000031504946584600F0AEFC81460121584600F02B
S31500003160EFFB0F9B0446002B00F0CE811A4601466A
S31500003170584600F09FFC099B0446012B00F39580FE
S31500003180049B002B40F08D80059BC3F31303002B9B
S3150000319040F08980059B23F000431B0D1B052BB1D6
S315000031A0089B08F101080133089301230A930F9B3A
S315000031B0002B00F0AF81236904EB8303186900F04C
S315000031C073FBC0F12000089B184410F01F0077D055
S315000031D0C0F12003042B6BDDC0F11C00089B80446A
S315000031E0034406440893B8F1000F05DD49464246FC
S315000031F0584600F0B9FC8146089B002B05DD2146A8
S315000032001A46584600F0B0FC0446129B002B59D0D3
S315000032102146484600F014FD002853DA7B1E494635
S315000032200A2258460693002300F0F6FA0B9B8146C5
S31500003230002B00F07181002329460A22584600F02F
S31500003240EBFA009B0546002B67DC099B022B41DC51
S3150000325063E0169BC3F1360346E700BF0000E03F7C
S3150000326000002440039B5C1E0A9BA34209DB1C1B37
S31500003270039B002BBFF639AF039BA8EB0306002385
S3150000328034E70A9B46460F9AE31A0A9400241A4426
S31500003290039B0F922AE70A9C46460B9D2FE70A9A44
S315000032A056E7002382E7049B80E700230A9382E720
S315000032B099D01C33089A1A4498441E44089292E7FF
S315000032C00346F6E7039B0697002B20DC0093099B39
S315000032D0022B1EDD009B002B7FF4C2AD214605228A
S315000032E0584600F099FA01460446484600F0A8FC04
S315000032F000287FF7B5AD3123564606F8013B069BFD
S3150000330001330693B0E5039C06972546F3E7039B36
S3150000331000930B9B002B00F00381002E05DD294650
S315000033203246584600F020FC05460A9B002B5AD030
S315000033306968584600F00EFA064628B9834B0246DD
S3150000334040F2EF21FFF75FBB2A6905F10C010C3053
S3150000335002329200FFF79BFA01223146584600F0EE
S3150000336003FC0AF101032F4605460393009B5344D1
S315000033700B93049B03F001030A93039B21464846E3
S31500003380013B0093FFF798FA3946049000F13008A4
S31500003390484600F055FC2A4608902146584600F05B
S315000033A06BFCC268064602BB0146484600F048FC74
S315000033B00246314658460E9200F00CFA099B0E9AC8
S315000033C0039E42EA03010A9B194310D1B8F1390F53
S315000033D029D0089B002B02DD049B03F13108009BDA
S315000033E083F8008041E52846BBE70122E1E7089B18
S315000033F0002B04DB09990B430A990B4320D1002AC1
S31500003400EDDD49460122584600F0AEFB21468146D5
S3150000341000F016FC002803DCE1D118F0010FDED025
S31500003420B8F1390FD8D13923009A137033461E46A6
S31500003430013B16F8012C392A51D001321A7014E5D5
S31500003440002A07DDB8F1390FEDD008F10103009A23
S3150000345013700AE5039B0B9A03F8018C934228D05C
S31500003460494600230A22584600F0D6F9AF42814663
S315000034704FF000034FF00A023946584607D100F0D4
S31500003480CBF907460546039B0133039375E700F026
S31500003490C3F92946074600230A22584600F0BCF91C
S315000034A00546F0E7009B0027002BCCBF1E460126F1
S315000034B0564449460122584600F056FB21468146AD
S315000034C000F0BEFB0028B1DC02D118F0010FADD12F
S315000034D033461E4613F8012D302AFAD0C5E49A4524
S315000034E0A5D1069B0133069331238AF80030BCE44C
S315000034F0239BDFF85CA01BB10AF10803239A136033
S31500003500504619B0BDE8F08F099B012B7FF738AE06
S315000035100F9B0A93012056E6009B002B7FF7D7AE40
S31500003520564621464846FFF7C7F900F13008009B8A
S3150000353006F8018BA6EB0A029342B3DD4946002347
S315000035400A22584600F068F98146EAE77148000009
S31500003550F447000038B50546002941D051F8043C2F
S315000035600C1F002BB8BFE41800F0E8F81D4A1368DA
S3150000357033B9636014602846BDE8384000F0E4B80B
S31500003580A34208D9206821188B4201BF19685B68DD
S3150000359009182160EDE71A465B680BB1A342FAD918
S315000035A011685018A0420BD12068014450181160D0
S315000035B08342E0D118685B68084453601060DAE71C
S315000035C002D90C232B60D6E7206821188B4202BF54
S315000035D019685B680918636008BF21605460CAE710
S315000035E038BD00BF0C050020024B0146186800F0EC
S315000035F025B800BF1000002070B50F4E0C460546DA
S31500003600316811B900F09AFE30602146284600F074
S3150000361095FE431C03D14FF0FF34204670BDC41CF9
S3150000362024F00304A042F8D0211A284600F086FEB2
S315000036300130F2D1EFE700BF080500202DE9F8437D
S31500003640CD1C064625F0030508350C2D38BF0C2584
S31500003650002D01DBA94204D90C2333600020BDE80C
S31500003660F883DFF8D48000F069F8D8F800301C46FB
S3150000367044BB29463046FFF7BFFF431C044658D1DA
S31500003680D8F800402746002F43D1002C4BD02368A2
S315000036903946304604EB030900F050FE814542D11D
S315000036A0216830466D1A2946FFF7A6FF01303AD049
S315000036B023682B442360D8F800305A6862BBC8F8E8
S315000036C000700FE02268521B20D40B2A17D961190B
S315000036D0A342256018BF5960636808BFC8F8001088
S315000036E062514B60304600F02FF804F10B00231DA9
S315000036F020F00700C21A1CBF1B1AA350AFE762686E
S31500003700A3420CBFC8F800205A60EBE72346646862
S31500003710AEE73C467F68B6E71A465B68A342FBD134
S3150000372000235360DEE70C233046336000F00CF8CC
S3150000373094E70560D6E700BF0C0500200148FFF7B7
S3150000374096B800BF040500200148FFF791B800BFF6
S315000037500405002070B5C66904460D4676B91020EA
S31500003760FFF742FF0246E06120B9184B6B2118486B
S31500003770FDF7E8FBC0E901660660C660E669F36826
S3150000378083B1E369DB6853F82500B8B90121204607
S3150000379001FA05F6721D920000F0E0FD60B1C0E985
S315000037A001560EE021220421204600F0D7FDE369F0
S315000037B0F060DB68002BE4D1002070BD026843F89E
S315000037C025200023C0E90333F7E700BF01480000C6
S315000037D08248000070B5C66905460C4676B91020C9
S315000037E0FFF702FF0246E86120B9094B8F2109481D
S315000037F0FDF7A8FBC0E901660660C6603CB1EB694F
S315000038006268DB6853F82210216043F8224070BDDD
S3150000381001480000824800002DE9F04101F1140C36
S3150000382007460C461E460D690020DCF800300130C4
S3150000383099B2854202FB01614FEA13464FEA1143F2
S3150000384089B202FB063301EB03414FEA13464CF8FB
S31500003850041BEADC0EB3A368AB4219DC6168384688
S315000038600131FFF777FF804628B902460C4BBA2193
S315000038700C48FDF767FB226904F10C010C3002329B
S315000038809200FFF704F8214644463846FFF7A2FFA8
S3150000389004EB850301355E6125612046BDE8F081B4
S315000038A07148000082480000B0F5803F034636BFED
S315000038B0030400201020B3F1807F3CBF1B020830B8
S315000038C0B3F1805F3CBF1B010430B3F1804F3CBFB6
S315000038D09B000230002B05DB13F0804F00F1010046
S315000038E008BF202070470368024613F007000BD07C
S315000038F0D90721D4980747BF5B0801209B080220FF
S315000039004CBF13601360704799B209B91B0C1020A5
S31500003910D9B209B908301B0A190704BF1B090430BC
S31500003920990704BF9B080230D90703D45B0800F14E
S31500003930010003D0136070470020704720207047B5
S3150000394010B50C460121FFF705FF024628B9054BC5
S3150000395040F245110448FDF7F5FA0123446103617D
S3150000396010BD00BF71480000824800002DE9F04FED
S3150000397017460A69894685B03B699A42A2BF3B460B
S315000039800F4699463D69BB68D9F810A0796805EBE2
S315000039900A06B342B8BF0131FFF7DCFE30B9024672
S315000039A0424B4FF4B1714248FDF7CCFA00F11404D2
S315000039B0002204EB860E2346734520D307F1140834
S315000039C009F1140108EB850501EB8A030293EB1B51
S315000039D01537153B23F003030433BD4238BF0423D8
S315000039E00193029B03918B420CD8002E03DD5EF8F7
S315000039F0043D002B57D0066105B0BDE8F08F43F8B3
S31500003A00042BD9E7B1F800A0BAF1000F21D0C446C3
S31500003A10A14600275CF8042BD9F800301FFA82FB78
S31500003A2065459BB24FEA12420AFB0B333B44D9F879
S31500003A3000704FEA17470AFB027202EB13429BB271
S31500003A404FEA124743EA024349F8043BE2D8019B96
S31500003A50E750039B0431B3F80290B9F1000F20D070
S31500003A6023684746A4464FF0000AB7F800B09BB259
S31500003A70BCF8022009FB0B22524443EA02434CF8ED
S31500003A80043B57F8043B4FEA134ABCF80030BD42EA
S31500003A9009FB0A3303EB12434FEA134AE5D8019AAE
S31500003AA0A35004349DE7013E9FE700BF7148000024
S31500003AB0824800002DE9F843154612F00302074636
S31500003AC00E4607D0013A254C002354F82220FFF772
S31500003AD0A3FE0646AD103DD0FC697CB91020FFF769
S31500003AE083FD0246F86128B91D4B40F2B3111D480B
S31500003AF0FDF728FAC0E901440460C460D7F81C80C9
S31500003B00D8F808404CB940F271213846FFF718FF43
S31500003B1000230446C8F8080003604FF00009EB07CD
S31500003B200AD5314622463846FFF720FF8046314601
S31500003B3038464646FFF74EFE6D100BD0206838B962
S31500003B40224621463846FFF711FF2060C0F8009054
S31500003B500446E4E73046BDE8F88300BFF8480000B5
S31500003B6001480000824800002DE9F0470C46074650
S31500003B7091464FEA621A2369496803EB6218A36803
S31500003B8008F10106B3420BDB3846FFF7E3FD0546B5
S31500003B9048B90246284B4FF4EF712848FDF7D2F991
S31500003BA001315B00EEE7002300F1140100F1100281
S31500003BB01846534533DB2AEAEA7A04F114032069EE
S31500003BC019F01F0901EB8A0103EB800C2BD0C9F118
S31500003BD0200E8A460022186800FA09F010434AF8B7
S31500003BE0040B53F8042B9C4522FA0EF2F3D8ACEBE7
S31500003BF0040304F11500153B23F003030433604569
S31500003C0088BF0423CA500AB108F10206013E3846AD
S31500003C1021462E61FFF7DEFD2846BDE8F087013319
S31500003C2042F8040FC5E7043953F8042B9C4541F8C4
S31500003C30042FF9D8EAE700BF714800008248000067
S31500003C4003460A690069801A30B50ED1143314315F
S31500003C5003EB820401EB820154F8045D51F8042D54
S31500003C60954203D005D24FF0FF3030BDA342F3D3C7
S31500003C70FBE70120F9E7FFFF2DE9F74F89460646E6
S31500003C80114614464846FFF7DBFF051E12D12946AA
S31500003C903046FFF75FFD024628B9414B40F2372117
S31500003CA04048FDF74FF90123C0E90435104603B03B
S31500003CB0BDE8F08FBCBF4B46A1463046B8BF0125D4
S31500003CC0D9F80410B4BF1C460025FFF743FD024691
S31500003CD018B9334B40F24521E2E7D9F8107004F1E8
S31500003CE0140E266900F1140BC56009F1140509F1DB
S31500003CF010030EEB860605EB8708D9464FF0000C3D
S31500003D000193019B5EF8040B53F804AF76450193CB
S31500003D101FFA8AF3194683B24FEA1040A1EB030358
S31500003D20C0EB1A40634400EB23409BB24FEA204CA1
S31500003D3043EA004349F8043BE3D8331B1534153BEB
S31500003D4023F003030433A64238BF04231D445B4417
S31500003D502C461E4644450ED308F10301491B033D7C
S31500003D6021F00301A84538BF00210B4453F8041D78
S31500003D7099B117619AE754F8041BE6461FFA81FCCD
S31500003D80080C7144F44489B200EB2C4041EA00412E
S31500003D904FEA204C46F8041BDCE7013FE6E700BF8C
S31500003DA071480000824800002DE9F7430F460121C3
S31500003DB0164659EC108BFFF7CDFC044630B9024687
S31500003DC0234B40F20F312348FDF7BCF8C9F30A55DF
S31500003DD0C9F313030DB143F480130193B8F1000343
S31500003DE023D068460093FFF77EFDDDE90012D0B1CF
S31500003DF0C0F1200302FA03F3C2400B430192636150
S31500003E00019B002BA3610CBF012202222261A5B1F6
S31500003E10A5F233450544C0F135003D6030602046CB
S31500003E2003B0BDE8F0836161EAE701A8FFF75BFD37
S31500003E30019B203001226361E8E7A0F2324004EBE7
S31500003E40820338601869FFF72FFDC0EB4210E5E7E3
S31500003E5071480000824800009368013B002B936084
S31500003E6010B408DA9469A34201DB0A2903D15DF88C
S31500003E70044BFEF70EBC1368581C106008461970F8
S31500003E805DF8044B7047F8B506460F461446D5183C
S31500003E90AC4201D1002007E03A4614F8011B304637
S31500003EA0FFF7DAFF431CF3D1F8BDFFFF2DE9F04F12
S31500003EB00D469DB014469846064618B1036A0BB9DE
S31500003EC0FEF7FEFA6B6ED90705D4AB899A0502D4C4
S31500003ED0A86DFEF7CCFCAB891B0701D52B699BB9F6
S31500003EE029463046FEF714FC70B16B6EDC0704D52C
S31500003EF04FF0FF301DB0BDE8F08FAB899805F7D4C1
S31500003F00A86DFEF7B5FCF3E70023CDF80C804FF063
S31500003F100109DFF8B481099320238DF82930302375
S31500003F208DF82A3023469A4613F8012B0AB1252A22
S31500003F30F9D1BAEB040B0BD05B4622462946304634
S31500003F40FFF7A1FF013000F0A780099A5A440992B1
S31500003F509AF80030002B00F09F8000234FF0FF32CC
S31500003F600AF1010A049307938DF853301A93CDE9A9
S31500003F70052354460522544814F8011BFEF779FC24
S31500003F80049AD8B9D10644BF20238DF853301307BD
S31500003F9044BF2B238DF853309AF800302A2B15D0C6
S31500003FA0079A544600204FF00A0C214611F8013BAF
S31500003FB0303B092B4BD9B0B1079214E0A0EB0803B4
S31500003FC0A24609FA03F313430493D2E7039B191D90
S31500003FD01B68002B0391BBBF5B4242F002020793B2
S31500003FE00793B8BF049223782E2B0AD163782A2B25
S31500003FF032D1039B02341A1D1B6843EAE373039212
S315000040000593DFF8D4A0032221785046FEF731FC51
S3150000401038B1A0EB0A004022049B013482401343CE
S31500004020049314F8011B062228488DF82810FEF781
S3150000403020FC00283FD0264B1BBB039B073323F0F5
S31500004040070308330393099B3B4409936AE70CFB78
S3150000405002320C460120A8E7002301344FF00A0C77
S3150000406019460593204610F8012B303A092A03D940
S31500004070002BC6D00591C4E70CFB012104460123A1
S31500004080F0E703AB2A4604A930460093114BFDF72F
S31500004090D1FD0746781CD6D16B6ED90705D4AB89FE
S315000040A09A0502D4A86DFEF7E3FBAB895B063FF5E4
S315000040B01FAF09981EE703AB2A4604A930460093B2
S315000040C0044BFEF753F8E4E7DC480000E64800003E
S315000040D0351C0000873E0000E2480000B1F90C20C4
S315000040E02DE9F041160705460C4654D44B68002BC3
S315000040F002DC0B6C002B48DDE66A002E45D000235F
S3150000410012F480522F68216A2B6030D0626DA38929
S31500004110590705D56368D21A636B0BB1236CD21AA3
S315000041200023E66A216A2846B047431CA38906D1C4
S3150000413029681D292BD82A4ACA40D60727D5002226
S31500004140D90462602269226004D5421C01D12B6821
S3150000415003B96065616B2F60B9B104F144039942FC
S3150000416002D02846FFF7F6F9002363630DE001232A
S315000041702846B0470246501CC9D12B68002BC6D032
S315000041801D2B01D0162B1DD12F60002021E043F0FE
S3150000419040031BB21AE00F69002FF6D093070E6892
S315000041A00F600CBF4B690023A6EB07088B60B8F1C4
S315000041B0000FEADD43463A46216A2846A66AB0471A
S315000041C0002808DCB4F90C3043F040034FF0FF3010
S315000041D0A381BDE8F0810744A8EB0008E7E700BF2C
S315000041E00100402038B50B6905460C4613B9002579
S315000041F0284638BD18B1036A0BB9FEF761F9B4F960
S315000042000C30002BF3D0626ED00704D4990502D48B
S31500004210A06DFEF72CFB28462146FFF75FFF636E75
S315000042200546DA07E4D4A3899B05E1D4A06DFEF721
S315000042301FFBDDE770B50C46B1F90E1096B01546BA
S3150000424000291E460CDAA389002113F0800F14BF43
S3150000425040234FF48063002031602B6016B070BDA0
S315000042606A4600F049F80028EDDB019901F4704137
S31500004270A1F50053594259414FF48063EBE78B890E
S31500004280F7B59D0706460C4607D504F1470323609C
S3150000429023610123636103B0F0BD01AB6A46FFF7FA
S315000042A0C9FF009F054630463946FFF7C7F948B9AA
S315000042B0B4F90C309A05EED423F0030343F002035D
S315000042C0A381E2E7A389206043F08003A381019BD9
S315000042D0C4E904075BB1B4F90E10304600F01EF8CD
S315000042E028B1A38923F0030343F00103A381A38923
S315000042F01D43A581CFE7FFFF38B50023064D0446D1
S31500004300084611462B6000F02BF9431C02D12B689E
S3150000431003B1236038BD00BF0005002038B5002377
S31500004320054D044608462B6000F022F9431C02D1D5
S315000043302B6803B1236038BD0005002038B5002383
S31500004340054D044608462B60FCF770FF431C02D15E
S315000043502B6803B1236038BD0005002070B5A1FBB2
S31500004360025434B92946FFF769F9064628B930469A
S3150000437070BD0C2200260260F9E72A462146FEF7A8
S315000043801DFAF4E782B001B901A942B14BB1137825
S315000043900B601278101E18BF012002B0704710463D
S315000043A0FBE76FF00100F8E70346084641B1FF2A34
S315000043B004D98A224FF0FF301A60704701200A7034
S315000043C07047FFFF4FF0FF3C06E000BF4FF0010CC7
S315000043D002E000BF4FF0010C4DF804CD4FEA410C4E
S315000043E07FEA6C5C4FEA430C18BF7FEA6C5C1BD01B
S315000043F001B050EA410C0CBF52EA430C91EA030F9C
S3150000440002BF90EA020F0020704710F1000F91EAF8
S31500004410030F58BF994208BF90422CBFD8176FEAC6
S31500004420E37040F0010070474FEA410C7FEA6C5C94
S3150000443002D150EA013C07D14FEA430C7FEA6C5C9B
S31500004440D6D152EA033CD3D05DF8040B704700BFC7
S315000044508446104662468C461946634600E000BF15
S3150000446001B5FFF7B7FF002848BF10F1000F01BDE7
S315000044704DF808EDFFF7F4FF0CBF012000205DF8B2
S3150000448008FB00BF4DF808EDFFF7EAFF34BF012037
S3150000449000205DF808FB00BF4DF808EDFFF7E0FFD0
S315000044A094BF012000205DF808FB00BF4DF808ED21
S315000044B0FFF7CEFF94BF012000205DF808FB00BF88
S315000044C04DF808EDFFF7C4FF34BF012000205DF86A
S315000044D008FB00BF4FEA410C7FEA6C5C02D150EA50
S315000044E0013C0AD14FEA430C7FEA6C5C02D152EAE6
S315000044F0033C02D14FF0000070474FF001007047B7
S315000045004FEA410212F5001215D211D56FF47873F5
S31500004510B3EB625212D94FEAC12343F0004343EA98
S31500004520505311F0004F23FA02F018BF4042704773
S315000045304FF00000704750EA013005D111F00040FD
S3150000454008BF6FF0004070474FF00000704700BF93
S31500004550024B58224FF0FF301A60704700050020CA
S31500004560024B58224FF0FF301A60704700050020BA
S31500004570024B582200201A60704700BF0005002039
S31500004580024B58224FF0FF301A607047000500209A
S31500004590024B58224FF0FF301A607047000500208A
S315000045A04275696C7420776974682052656E65730C
S315000045B0617320416476616E63656420466C65783C
S315000045C069626C6520536F6674776172652050610D
S315000045D0636B6167652076657273696F6E20352E31
S315000045E0382E3000352E382E300000000000080529
S315000045F0F8B500BFF8BC08BC9E467047F8B500BFCA
S31500004600F8BC08BC9E4670474653505F535543431B
S31500004610455353203D3D20657272000000000000A6
S315000046202E2E2F7372632F68616C5F656E747279BC
S315000046302E63000068656C6C6F20776F726C642166
S31500004640000000005035313128414E3234293D25D5
S31500004650642C766F6C746167653D25660A00000000
S315000046605035313028414E3235293D25642C766F40
S315000046706C746167653D25660A00FFFF68616C5FC3
S31500004680656E74727900FFFF090300000C000C01CF
S315000046900C020C030000000000000000D101000025
S315000046A000000000A84600000001000000000020F5
S315000046B00F00FFFF00000000FFFF000000000003E6
S315000046C000000000000000000000000000000018CC
S315000046D000000000000F04DF0002FF0039020000A6
S315000046E000000000E846000000013F3F000000DF38
S315000046F0DFFFFFFF0600000000470000000000008B
S315000047000000010008010000000001050901000089
S31500004710000001050A01000000000100000300007E
S31500004720008000000A050000008000000B05000064
S31500004730B601B701B801B901600100000000000030
S315000047400000000000000000000000000000000063
S315000047500000000000000000000000000000000053
S315000047600000000000000000000000000000000043
S315000047700000000000000000000000000000000033
S315000047800000000000000000000000000000000023
S315000047900000000000000000000000000000000013
S315000047A00000000000000000000000000000000003
S315000047B0020403040404FFFF0100020008001000C5
S315000047C0494E4600696E66004E414E006E616E00AF
S315000047D0300030313233343536373839414243448C
S315000047E04546003031323334353637383961626305
S315000047F064656600496E66696E697479004E614E3D
S31500004800005245454E54206D616C6C6F6320737584
S3150000481063636565646564002F646174612F6A650E
S315000048206E6B696E732F776F726B73706163652F32
S31500004830474E552D746F6F6C636861696E2F617298
S315000048406D2D31332F7372632F6E65776C69622D10
S3150000485063796777696E2F6E65776C69622F6C690D
S3150000486062632F7374646C69622F64746F612E6364
S315000048700042616C6C6F6320737563636565646584
S3150000488064002F646174612F6A656E6B696E732FA5
S31500004890776F726B73706163652F474E552D746F1A
S315000048A06F6C636861696E2F61726D2D31332F7382
S315000048B072632F6E65776C69622D63796777696EAF
S315000048C02F6E65776C69622F6C6962632F737464EF
S315000048D06C69622F6D707265632E6300232D302B19
S315000048E02000686C4C0065666745464700430050EB
S315000048F04F534958002E00FF050000001900000024
S315000049007D000000FFFFFFFF0080E03779C34143D1
S31500004910176E05B5B5B89346F5F93FE9034F384D1F
S31500004920321D30F94877825A3CBF737FDD4F1575CB
S31500004930000000000000F03F0000000000002440DE
S3150000494000000000000059400000000000408F40B9
S31500004950000000000088C34000000000006AF84024
S315000049600000000080842E4100000000D012634148
S315000049700000000084D797410000000065CDCD41BE
S31500004980000000205FA00242000000E8764837429F
S31500004990000000A2941A6D42000040E59C30A2423D
S315000049A00000901EC4BCD64200003426F56B0C43B2
S315000049B00080E03779C3414300A0D8855734764359
S315000049C000C84E676DC1AB43003D9160E458E143BA
S315000049D0408CB5781DAF154450EFE2D6E41A4B442F
S315000049E092D54D06CFF08044F64AE1C7022DB54474
S315000049F0B49DD9794378EA44002020202020202045
S31500004A002020282828282820202020202020202078
S31500004A102020202020202020208810101010101088
S31500004A2010101010101010101004040404040404D4
S31500004A30040404101010101010104141414141416E
S31500004A400101010101010101010101010101010150
S31500004A500101010110101010101042424242424260
S31500004A600202020202020202020202020202020220
S31500004A7002020202101010102000000000000000C8
S31500004A800000000000000000000000000000000020
S31500004A900000000000000000000000000000000010
S31500004AA00000000000000000000000000000000000
S31500004AB000000000000000000000000000000000F0
S31500004AC000000000000000000000000000000000E0
S31500004AD000000000000000000000000000000000D0
S31500004AE000000000000000000000000000000000C0
S31500004AF0000000000000000000FFFFFF10000000A3
S31500004B0000000000017A5200027C0E011B0C0D0011
S31500004B10100000001800000090DDFFFF10000000EC
S30D00004B20000000000000000087
S31500004B2844000EDD0000000003000000C40300205E
S31500004B381400002000000000C40300202C040020FC
S31500004B48940400200000000000000000000000009F
S31500004B580000000000000000000000000000000047
S31500004B680000000000000000000000000000000037
S31500004B780000000000000000000000000000000027
S31500004B8843000000000000000000000000000000D4
S31500004B980000000000000000000000000000000007
S31500004BA843000000000000000000000000000000B4
S31500004BB800000000000000000000000000000000E7
S31500004BC84300000000000000000000000000000094
S31500004BD800000000000000000000000000000000C7
S31500004BE84300000000000000000000000000000074
S31500004BF800000000000000000000000000000000A7
S31500004C084300000000000000000000000000000053
S31500004C180000000000000000000000000000000086
S31500004C284300000000000000000000000000000033
S31500004C380000000000000000000000000000000066
S31500004C484300000000000000000000000000000013
S31500004C580000000000000000000000000000000046
S31500004C68A94300008543000000000000F849000041
S31500004C78F5480000E1480000E1480000E14800006E
S31500004C88E1480000E1480000E1480000E148000072
S31500004C98E1480000E1480000FFFFFFFFFFFFFFFFBC
S31500004CA8FFFFFFFFFFFF0000010041534349490092
S31500004CB800000000000000000000000000000000E6
S31500004CC8000000000000000000004153434949006D
S31500004CD800000000000000000000000000000000C6
S31500004CE8000000000000000000000000AD01000008
S30900004CF8850100002C
S3150100A100FFFFFFFFFFFFFFFFFFFFFFFFFFFFFFFF58
S3090100A110FFFFFFFF48
S3090100A134FFFFFFFF24
S3150100A200FEF1FFFFFFFFFFFFFFFFFFFFFFFFFFFF66
S3150100A210FFFFFFFFFFFFFFFFFFFFFFFFFFFFFFFF47
S3150100A220FFFFFFFFFFFFFFFFFFFFFFFFFFFFFFFF37
S3150100A230FFFFFFFFFFFFFFFFFFFFFFFFFFFFFFFF27
S3150100A240FFFFFFFFFFFFFFFFFFFFFFFFFFFFFFFF17
S3150100A250FFFFFFFFFFFFFFFFFFFFFFFFFFFFFFFF07
S3150100A260FFFFFFFFFFFFFFFFFFFFFFFFFFFFFFFFF7
S3150100A270FFFFFFFFFFFFFFFFFFFFFFFFFFFFFFFFE7
S3150100A280F8F0FFFFFFFFFFFFFFFFFFFFFFFFFFFFED
S3150100A290FFFFFFFFFFFFFFFFFFFFFFFFFFFFFFFFC7
S3150100A2A0FFFFFFFFFFFFFFFFFFFFFFFFFFFFFFFFB7
S3150100A2B0FFFFFFFFFFFFFFFFFFFFFFFFFFFFFFFFA7
S3150100A2C0FFFFFFFFFFFFFFFFFFFFFFFFFFFFFFFF97
S7050000127177
