S01700005241344C315F50726F6A65637431332E737265632F
S31500000000E8280020990D0000310B0000950D000036
S31500000010950D0000950D0000950D0000950D000052
S31500000020000000000000000000000000950D000028
S31500000030950D000000000000950D0000950D0000D4
S3150000004075060000F1050000F10600002507000016
S31500000050000000000000000000000000000000009A
S31500000060000000000000000000000000000000008A
S31500000070000000000000000000000000000000007A
S31500000080000000000000000000000000000000006A
S31500000090000000000000000000000000000000005A
S315000000A0000000000000000000000000000000004A
S315000000B0000000000000000000000000000000003A
S315000000C0000000000000000000000000000000002A
S315000000D0000000000000000000000000000000001A
S315000000E0000000000000000000000000000000000A
S315000000F000000000000000000000000000000000FA
S3150000010000000000000000000000000000000000E9
S3150000011000000000000000000000000000000000D9
S3150000012000000000000000000000000000000000C9
S3150000013000000000000000000000000000000000B9
S315000001400348044B834202D0034B03B11847704760
S31500000150C8010020C801002000000000064B074926
S31500000160C91A891048BF0131491003D0044B0BB19D
S3150000017001481847704700BFC8010020C801002089
S315000001800000000010B5064C237843B9FFF7D8FFEE
S31500000190044B13B10448AFF300800123237010BD54
S315000001A0E001002000000000B438000008B5054B4F
S315000001B01BB105490548AFF30080BDE80840FFF7CD
S315000001C0CDBF00BF00000000E4010020B4380000ED
S315000001D00379022B07D0012B02D0042B07D07047DE
S315000001E00E4A1370704701220D4B1A7070470D4A64
S315000001F01368092BF3D810B40B4C81686078032878
S3150000020006D90A4C981CE15210605DF8044B704701
S3150000021006485C1C1460C154F7E700BF0A020020C0
S315000002200B020020FC010020BC340000000200206C
S315000002302DE9F043284929489DB000F0BFF8284E23
S31500000240306028B15221274B274A284800F03CFC51
S315000002506B46274A07CA83E807000B2219461F4840
S3150000026000F062F83060002834D1224D2B78002B44
S31500000270FCD00022204B03AC2A700FCB84E80F0081
S31500000280204601F05AF921460246144800F04CF87F
S31500000290306000B100BE2B78002BFCD00027174C35
S315000002A0DFF85C90DFF834802F70039722680A2A03
S315000002B00AD149464046276000F036F8306000B162
S315000002C000BE2B78002BFCD04FF47A71084600F064
S315000002D003FCEBE700BEC8E7BC34000018020020B0
S315000002E00C0200206C340000B034000080340000A2
S315000002F0A43400000B02002094340000FC0100200E
S3150000030000020020022800D070470249024800F08F
S31500000310D9BA00BFF03400001002002008B5FFF77C
S3150000032087FF002008BD00BF10B4046AA37803F05D
S315000003307B03A3708378046A03F00303D21A0B4489
S31500000340C0E90332A37843F08003A370837803F0F7
S315000003500303022B06D0036A0A780020DA705DF8E0
S31500000360044B70470B88026A43F47E43D381002016
S315000003705DF8044B704700BFF0B5846A85B005464A
S315000003800F4694466E46B4B194E80F0086E80F0017
S31500000390EB6920461B78A760236084F804C0EB6AEB
S315000003A0E3606B6A9847AC6A1CB196E80F0084E874
S315000003B00F0005B0F0BD3446EAE700BF2DE9F8436B
S315000003C00B780D46012B044600F0FE80002601271F
S315000003D003F5800303F58C531B02C4E9075326700B
S315000003E06A69A3786262AA6967F30103C4E90A62CB
S315000003F0A3706B78BB4214BF3A460222A37862F31D
S315000004000103A37095F90B8095F80A90404600F019
S31500000410EBFB404600F0AAFB22464946404600F068
S31500000420B3FB95F9058095F80490404600F0DCFB97
S31500000430404600F09BFB22464946404600F0A4FB9E
S3150000044095F9078095F80690404600F0CDFB4046AA
S3150000045000F08CFB22464946404600F095FB95F994
S31500000460098095F80890404600F0BEFB404600F033
S315000004707DFB22464946404600F086FBEFF310809E
S3150000048087F310884FF000412A78574BD1405A68BD
S3150000049022EA01025A605B6880F31088236A9E7024
S315000004A0236A1E71236A5E72236A9E72236ADE7253
S315000004B0236A5E8340F239232A7897401F4202D08E
S315000004C04022236ADA740620012340F23922216A87
S315000004D0087729788B40134266D1EB786A78A97839
S315000004E0DB00022A43EA01137AD0012A0CBFE2217B
S315000004F0F221226ADBB21370236A9971E9690B7BD8
S31500000500082B69D0226A5B0003F0020353730020B4
S315000005104B788A78DB01520102F02002DBB21343EA
S31500000520226A10720A78023A012A226A41D9DBB29B
S31500000530D3714A68236A917859705078197860F3B4
S3150000054001011970D1789974D979127801F0A30153
S3150000055002F05C020A43DA710026C4E90366C4E9C4
S315000005600566E369EF6993F905003D7800F01EFB27
S31500000570E36905F0030593F90B0000F017FBE36947
S3150000058045F0700593F9070000F010FBE36993F955
S31500000590090000F00BFB3046226A144B95707A89ED
S315000005A063602281BDE8F8834FF47842236A9A8219
S315000005B093E7FF2050700A78022A08BF43F0100321
S315000005C0226ADBB2D371C7E7CA695268127812078A
S315000005D07FF5FCAE0320E5E70A22236A5A7396E705
S315000005E0F22143F0400384E7004008405549435355
S315000005F010B5EFF30384103C64B2204600F0B6FA5F
S315000006001B4B53F82400C3691B699BB1036903B1F3
S3150000061010BD026A0021937803F07F0343F00403C0
S315000006209370436AC160002BF2D0BDE8104080226F
S31500000630FFF7A2BE0369026A002BEBD08378C1687C
S3150000064003F00303022B0DD00B78D3708278D0E928
S31500000650031302F003029B1A1144C0E90313002B93
S31500000660D6D1D6E70B8843F47E43D381EEE700BFAD
S315000006708C02002010B582B0EFF30384103C64B204
S31500000680204600F073FA194B53F82440A27802F082
S315000006900303022B236A0CBF198A5979A3690CBF7D
S315000006A0C1F30801C9B2019143B9636AB3B1042227
S315000006B0204602B0BDE81040FFF75EBE02F003021E
S315000006C001A9606900F02CFFD4E90521A37803F0A5
S315000006D003031A44C91AC4E9052109B102B010BDC1
S315000006E0636A002BFAD00122E2E700BF8C020020E9
S315000006F010B5EFF303840A4B103C64B253F82400A0
S31500000700026A937803F07B039370436A1BB102225B
S315000007100021FFF731FE2046BDE8104000F026BA62
S315000007208C02002010B5EFF30384174B103C64B223
S3150000073053F82400837803F00303022B036A0CBFEB
S31500000740198A597993F804C00CBFC1F30801C9B2DC
S315000007501CF0100F0CF0380206D093F81CC01CF0E9
S31500000760010F08BF42F0400293F804C00CF0C70C1A
S3150000077083F804C0436A0BB1FFF7FEFD2046BDE8CF
S31500000780104000F0F3B900BF8C0200202DE9F843B9
S315000007900388BBB107464FF00008DFF878900024C5
S315000007A01B4D4FEAC8067B6835F8022B99198988D4
S315000007B0914209D00134032CF5D13B8808F1010898
S315000007C04345ECD8BDE8F8839B5904F1200203F0B9
S315000007D0B853B3F1807F19F812300CD0DB09E9D099
S315000007E019F81230012123F08003C82009F81230CD
S315000007F000F072F9DEE7DB09DCD119F812300121CD
S3150000080043F08003C82009F8123000F065F9D1E7FB
S315000008109C35000000300840F8B50646FFF7B6FFE5
S31500000820EFF31082012383F31088234F3B681BB933
S315000008302249CB704023CB703B6801333B6082F387
S315000008401088338823B300211D4D08E01B01134493
S3150000085045F82340328801318BB29A4218D9736821
S3150000086053F8314003EBC1029288E0034FEA1223AA
S31500000870D2B2EBD502EB031055F820E024F4803C0D
S315000008802EF4803E45F820E01B0145F820C0DEE747
S31500000890EFF31082012383F310883B6813B13B68A2
S315000008A0013B3B603B681BB980200449CB70C87094
S315000008B082F31088F8BD00BF8802002000FD0140C9
S315000008C000F8014008B5034B03600846FFF7A4FF94
S315000008D0002008BD54524F50064B074993F8260096
S315000008E01A6A51F82030C2F302620449D3400B6001
S315000008F0704700BF00E00140C801002098030020B7
S31500000900704700BF2DE9F04101224AF203584FF427
S3150000091000414FF0080C09263C4C3D4B3D4D3E48EE
S31500000920DFF808E16560E5603C4FA3F8FE8382606E
S3150000093002608EF8C82F3A4A2760A1602161626181
S3150000094093F82620196A54F82220364DC1F3026125
S31500000950CA402A6083F813C483F8A26093F88024FF
S315000009601AB993F881349F074BD0294E96F88034F4
S31500000970002B3BD00022264B83F8812483F8802469
S31500000980234991F8A030DE06C3F30010F9D4204ABB
S3150000099081F8A00092F8A030D906C3F30010F9D46C
S315000009A01B4982F8320091F83C301A07FBD54FF408
S315000009B070600023164A088581F82A3092F83C3088
S315000009C09B06FBD505234FF425401749116282F893
S315000009D0263092F82630116A54F82330C1F30261AA
S315000009E0CB402B60A2F8FE03BDE8F0810121C820B0
S315000009F086F8801400F070F896F88034012BFBD14D
S31500000A00B8E74FF47A70FFF77BFFB9E7C80100201B
S31500000A1000E0014000127A0000700040006CDC0229
S31500000A200090D003980300202112002100F07E40A0
S31500000A3038B50025224C0121C82084F8285000F042
S31500000A404BF884F8245094F82430002BFBD194F80A
S31500000A5024301B4943F0020384F8243091F82430F3
S31500000A60C3F340009B07F9D4154A81F8220092F897
S31500000A70223003F0FF00002BF9D192F840301049E4
S31500000A8060F3C71382F8403091F84030DB09FBD1A0
S31500000A9091F842000A4A63F3C71081F8420092F8BF
S31500000AA04230DB09FBD192F84400054963F3C710D5
S31500000AB082F8440091F84430DB09FBD138BD00BF11
S31500000AC000300840704700BF00BEFEE7A0F10100FD
S31500000AD00028FBD1704700BF4FF47A7310B400FBB7
S31500000AE001F1114C114A2468B2FBF4F2A1FB030494
S31500000AF03CB9B0FBF2F0800860B15DF8044BFFF73B
S31500000B00E5BF9200B1FBF2F1A1FB03132BB9084636
S31500000B100028F2D15DF8044B70474FF0FF3C5DF8BA
S31500000B20044B6046FFF7D2BF9803002000CA9A3BE9
S31500000B3070B500240B4B0C4EB3F82021B3F840518E
S31500000B40ADB2154025FA04F3DB0704D556F8243078
S31500000B50E0B203B198470134102CF3D1014BA3F84E
S31500000B60305170BD0060004048020020054BC03087
S31500000B7053F8202022F4803243F8202053F8203006
S31500000B80704700BF0060004010B40901064C00F138
S31500000B906043C9B203F5614383F8001344F820208B
S31500000BA05DF8044B704700BF8C0200200D4B00F12E
S31500000BB0C00253F8221021F4803143F8221053F872
S31500000BC02230BFF35F8F012243099B0000F01F0014
S31500000BD003F1604303F561438240C3F880211A6044
S31500000BE0704700BF0060004001220649430900F03B
S31500000BF01F008240203341F82320BFF34F8FBFF3FD
S31500000C006F8F704700E100E030B5032083B000F03D
S31500000C1077F86FF0FF054FF0FF311D4C0023224699
S31500000C204FF0010E1B488564CDE9001104F18005E3
S31500000C3032F8020F590960B102A800EB810151F8A0
S31500000C40080C03F01F0C0EFA0CFC20EA0C0041F80D
S31500000C50080CAA4203F10103EAD1009A0E4B0D4992
S31500000C6003200A67C3F88022019A4A67C3F88422E0
S31500000C7000F016F80023094834F8022F03F1C001EA
S31500000C8001330AB140F82120AC42F5D103B030BDA2
S31500000C901A3500000080004000E100E000600040DE
S31500000CA0EFF31081012383F31088124B33F81020E1
S31500000CB092B22AB133F81020013A92B223F81020EA
S31500000CC033F810309BB293B910B40B4A0B4CB2F800
S31500000CD0FE3334F810009BB243F4254323EA0003A5
S31500000CE0A2F8FE3381F310885DF8044B704781F358
S31500000CF0108870478C03002000E00140A4350000F6
S31500000D0030B4EFF31081012383F310880E4A32F8D2
S31500000D1010309BB26BB90D4C0D4DB4F8FE3335F85F
S31500000D2010C09BB243EA0C0343F425439BB2A4F8DC
S31500000D30FE3332F8103001339BB222F8103081F3C3
S31500000D40108830BC704700BF8C03002000E00140D3
S31500000D50A435000008B50C4A0346106840B10333B9
S31500000D600A4923F0030303448B4205D8136008BDE8
S31500000D70074908461160F2E700F0CAFB0C22034659
S31500000D801A604FF0FF3008BD94030020E8240020CD
S31500000D90E804002000BE704708B500F003F8FFF72E
S31500000DA0BDFAFEE74FF4700270B52B4B2B4CC3F81F
S31500000DB0882000209C60FFF7A5FAFFF7A3FD01201D
S31500000DC0FFF7A0FA2368A3F5806383F30A88244813
S31500000DD0244A0021121A00F08FFB2348234A244993
S31500000DE0121A00F09DFB234D234B5B1B002B07DDE6
S31500000DF000249E1055F8043B01349847A642F9DCBE
S31500000E00FFF76AFDFFF714FE0320FFF779FF0023C3
S31500000E104FF6FF70194903F108020133092B21F837
S31500000E201200F8D100240320FFF73AFF0320FFF752
S31500000E3067FF134B03205C609C60DC601C61FFF75E
S31500000E402FFF0220FFF75EFAFFF7DEFE2046BDE821
S31500000E507040FFF737BE00BF00ED00E00000000065
S31500000E60E0010020E404002000000020C80100206A
S31500000E70E0380000C0010020C401002000FD014050
S31500000E8000000E402DE9FF4757EC106B002F0C4673
S31500000E9019463B46B4BF07F1004300239146BFBF46
S31500000EA032461F462D231646DDF830A00B700D9BEB
S31500000EB023F02008B8F1460F05D0B8F1450F00D150
S31500000EC00134022100E0032103AB2246019302AB69
S31500000ED047EC106B0093534600F0C6FBB8F1470F82
S31500000EE0054619D119F0010F0ED000EB04090022B6
S31500000EF000233046394602F015FA08B1CDF80C90B9
S31500000F003022039B4B451ED3039B28460E9A5B1B40
S31500000F10136004B0BDE8F087B8F1460F00EB040992
S31500000F20E5D10378302B0AD100220023304639461A
S31500000F3002F0F8F918B9C4F10104CAF80040DAF869
S31500000F4000309944D3E7591C03911A70D9E7F7B5D5
S31500000F5000290270BABF49422D232B230929437069
S31500000F6028DD0DF107030A271D461A46013BB1FB92
S31500000F70F7F607FB1614303402F8014C0C463146DE
S31500000F80632CF2DC3031941E03F8011C411C23460D
S31500000F90AB420AD30DF109039B1AAC4288BF00236A
S31500000FA002330344181A03B0F0BD13F8016B01F8BD
S31500000FB0016FEDE7302330318370031DC170F1E717
S31500000FC02DE9F04F8DB00C4616461F46DDF85880C9
S31500000FD0054600F099FA03681846049300F0ADFA46
S31500000FE0002305900A93D8F8003094F818A0073328
S31500000FF0D4F800B023F0070303F10802C8F8002074
S315000010004FF0FF32D3E9008929F00043CDF818806C
S3150000101007939D4BDDE90601C4E9128902F0B4F994
S3150000102070BB4FF0FF32984BDDE9060102F08EF9F6
S3150000103030BB002200234046494602F07DF910B13C
S315000010402D2384F84330914A914BBAF1470F8CBF58
S315000010509046984603234FF0000923612BF00403C2
S31500001060236033460BAA21462846009700F0D2F9A2
S31500001070013040F08D804FF0FF300DB0BDE8F08FAD
S3150000108042464B464046494602F07EF940B14B4641
S31500001090804A002BBCBF2D2384F843307E4BD4E717
S315000010A00AF0DF02636806925A1C3BD1062363608E
S315000010B04BF4806200232846226003930AABCDE9F5
S315000010C001A309AB49EC108B00930DF12303616872
S315000010D0FFF7D8FE069B80460999472B29D1C81CE5
S315000010E002DB6368994241DDAAF1020A5FFA8AFAD5
S315000010F00139524604F150000991FFF728FF0A9A78
S3150000110081461318012A236102DC2268D20701D521
S31500001110013323619DF82330002BA2D02D2384F8C0
S3150000112043309EE7069A472AC2D1002BC0D101233D
S31500001130BDE7BAF1650FDBD9BAF1660F18D1002900
S3150000114063680BDD216113B92268D00702D501332C
S315000011500B4423614FF00009A165DBE713B9226850
S31500001160D20701D50233F4E70123F2E74FF0670A0D
S315000011700A9B994205DB23682161D807EAD54B1CF7
S31500001180E7E70029D4BFC1F1020201221344E0E7D8
S3150000119023685A0507D42369424631462846B8478C
S315000011A001302BD167E7BAF1650F40F2DD800022EE
S315000011B00023D4E9120102F0B5F8002833D0012348
S315000011C0364A31462846B84701303FF454AFDDE988
S315000011D00938434502DB2368D8070FD53146284630
S315000011E0DDE90423B84701303FF445AF4FF000096D
S315000011F008F1FF3804F11A0AC84509DC23689B0781
S3150000120000F10381E0680B9B9842B8BF184634E7AB
S315000012100123524631462846B84701303FF42BAFEA
S3150000122009F10109E8E7099B002B39DC01231B4A78
S3150000123031462846B84701303FF41DAFDDE909398C
S3150000124059EA030302D12368D907D7D53146284680
S31500001250DDE90423B84701303FF40DAF4FF0000A33
S3150000126004F11A0B099B5B42534501DC4B4693E79D
S3150000127001235A4631462846B84701303FF4FBAEB3
S315000012800AF1010AEEE700BFFFFFEF7FB03500006D
S31500001290AC350000B8350000B4350000BC350000A0
S315000012A0A36DDDF828A05345A8BF5346002B9946E9
S315000012B036DC4FF0000B29EAE97904F11A02A36D36
S315000012C00693A3EB09035B4531DC099B9A453ADC9F
S315000012D02368DA0737D4099BAAEB0309069BAAEB16
S315000012E003039945A8BF9946B9F1000F33DC4FF0C7
S315000012F0000829EAE97904F11A0B099BAAEB030312
S31500001300A3EB090343457FF779AF01235A463146DC
S315000013102846B84701303FF4AEAE08F10108ECE7C5
S31500001320424631462846B8470130C2D1A3E60123DA
S31500001330314628460692B84701303FF49CAE0BF181
S31500001340010B069ABBE7DDE9042331462846B84778
S315000013500130C0D18FE6069A4B46314628464244B4
S31500001360B8470130C3D186E6DDF828A0BAF1010FEF
S3150000137001DCDB0736D50123424631462846B8470D
S3150000138001303FF478AE31462846DDE90423B847FC
S3150000139001303FF470AE002200230AF1FF3AD4E98F
S315000013A0120101F0BFFFC0B9534608F101023146F0
S315000013B02846B84701300CD15DE601235A4631462E
S315000013C02846B84701303FF456AE08F10108D0452B
S315000013D0F3DB4B4604F15002DFE64FF0000804F160
S315000013E01A0BF4E701234246E1E701234A46314658
S315000013F02846B84701303FF43EAE08F10108E368DD
S315000014000B995B1A4345F0DCFCE64FF0000804F14B
S315000014101909F4E72DE9F047164698468A68074603
S315000014200B690C46DDF820909342B8BF1346336033
S3150000143091F843200AB1013333602368990642BF0D
S31500001440336802333360256815F0060506D104F1CA
S31500001450190AE36832689B1AAB422BDC94F84330D6
S315000014602268003B18BF0123920630D404F14302E0
S3150000147041463846C847013023D023681A3454F809
S315000014800A2C03F00603042B0ABF54F80E5C002551
S3150000149033684FF0000608BFED1A54F8123C08BF37
S315000014A025EAE5759342C4BF9B1AED18B5421AD1D9
S315000014B0002008E00123524641463846C84701301D
S315000014C003D14FF0FF30BDE8F0870135C1E7E118E1
S315000014D05A1C30200233224481F8430094F8451008
S315000014E082F84310C2E70123224641463846C847E0
S315000014F00130E6D00136D9E702440346934200D1D3
S31500001500704703F8011BF9E70048704744010020C3
S31500001510014B1868704700BF0400002070477047F1
S315000015200A44431E914200D1704710B511F8014B91
S31500001530914203F8014FF9D110BD034613F8012B70
S31500001540002AFBD1181A013870472DE9F74F0369B5
S3150000155007460C69A342C0F28380013C00F11405E2
S3150000156001F11408A30055F8242008EB8409009320
S3150000157005EB8403019358F8243001339A42B2FBF9
S31500001580F3F631D34FF0000AC446AE46D3465CF8B4
S31500001590043B98B2E1454FEA134306FB00A04FEA2D
S315000015A0104280B206FB0323DEF8002092B24FEA17
S315000015B0134AA2EB00029BB2DEF800005A44C3EBCA
S315000015C0224392B203EB104342EA03424FEA234B13
S315000015D04EF8042BDBD2009BEB582BB9019B043B46
S315000015E09D421A4630D33C61384601F027F900285F
S315000015F026DB2946002058F8042BD1F800C01FFA34
S3150000160082FEC1451FFA8CF34FEA1242A3EB0E038A
S315000016100344C2EB23429BB202EB1C4243EA024361
S315000016204FEA224041F8043BE5D255F8242005EB69
S31500001630840322B9043B9D421A460BD33C61013612
S31500001640304603B0BDE8F08F1268043B002ACAD1C9
S31500001650013CC5E71268043B002AEFD1013CEAE7EA
S315000016600020EEE7FFFFFFFF2DE9F04FC76999B0B5
S315000016708346229E09910E92139355EC104B8DEDE5
S31500001680040B7FB9102000F0ADFD0246CBF81C001C
S3150000169020B9A74BEF21A748FFF716FAC0E9017753
S315000016A00760C760DBF81C30196859B15A68012316
S315000016B0584693404A608B6000F08AFEDBF81C3087
S315000016C000221A602B1EB7BF23F00043002301221D
S315000016D00593A8BF3360059F974BB8BF3260BB43E5
S315000016E012D142F20F73139A1360C7F31303234305
S315000016F000F04685239BDFF854A2002B00F04885B6
S315000017000AF1030300F042BD9DED047B0022002395
S3150000171051EC170B8DED0C7B01F004FE804658B1A1
S315000017200123139A1360239B13B1844B239A1360EE
S31500001730DFF81CA200F02CBDC7F30A5616AA17A99B
S3150000174058469DED0C0B01F02DF98146002E75D003
S315000017500D9BA6F2FF36CDF85080C3F3130343F07A
S315000017607F53DDE90C0143F4401319460022744B04
S3150000177001F0B8F968A3D3E9002301F06BFB68A375
S31500001780D3E9002301F0B0F904460D46304601F0D6
S31500001790F7FA65A3D3E9002301F05CFB02460B468A
S315000017A02046294601F0A0F904460D4601F002FE46
S315000017B00022074600232046294601F0BDFD40B120
S315000017C0384601F0DDFA22462B4601F0ABFD00B9A2
S315000017D0013F162F51D85B4B03EBC703DDE90C0124
S315000017E0D3E9002301F0A8FD002848D0013F0023DB
S315000017F01293169B9B1B5A1E46BFC3F1010800237A
S315000018004FF00008089248BF0893002F39DB089B69
S315000018100F973B44089300230A93099B092B61D831
S31500001820052BC5BF043B002401240993099B023BF9
S31500001830032B63D8DFE803F05254372CDDE9166337
S315000018401E4406F23243202BC9BFC3F14003C3F145
S3150000185020039F4006F21243D8BF04FA03F006F1B4
S31500001860FF36C4BF24FA03F347EA030001F078FA0F
S315000018700122A1F1F873149277E70123B8E71290D9
S31500001880B7E77B42A8EB07080A9300230F93C4E748
S3150000189001230B930E9BFB1800930133012B03933B
S315000018A0B8BF012306E001230B930E9B002B28DD16
S315000018B000930393DBF81C000021042202F11405B7
S315000018C09D4223D94160584600F042FD82460028D9
S315000018D040D11D4B024640F2AF11DCE60023E3E7A0
S315000018E00023D6E7012400230B9409934FF0FF331E
S315000018F000220093039312230E92DBE701230B933E
S31500001900F4E701231A4600930393F5E701315200E9
S31500001910D4E700BFAFF3008061436F63A787D23F70
S31500001920B3C8608B288AC63FFB799F501344D33FC8
S31500001930CB350000E23500000000F07FBD35000029
S315000019400000F83FE83600003B360000C7350000CF
S31500001950BC350000DBF81C301860039B0E2B00F230
S31500001960A180002C00F09E80002F33DD07F00F02CF
S315000019709B4BF8054FEA271403EBC20393ED007B5C
S315000019808DED067B16D5974B04F00F040326D3E99D
S315000019900823DDE90C0101F087FBCDE90401914D37
S315000019A054B9DDE90623DDE9040101F07DFBCDE94B
S315000019B0040128E00226F2E7E10708D50136DDE951
S315000019C00601D5E9002301F045FACDE906016410C8
S315000019D00835E5E700F0AF807C42814B814D022659
S315000019E004F00F02241103EBC203DDE90C01D3E975
S315000019F0002301F02FFA0023CDE90401002C40F06A
S31500001A008F80002BD3D1129BDDE90445002B00F01B
S31500001A1094800022744B2046294601F08DFC002854
S31500001A2000F08B80039B002B00F08780009B002B2F
S31500001A3034DD7B1E204600222946069301366B4B79
S31500001A4001F008FA009CCDE90401304601F098F94E
S31500001A50DDE9042301F0FEF90022654B01F044F8AC
S31500001A600546A1F15076002C6AD10022614BDDE9D2
S31500001A70040101F037F802460B46CDE904232A4655
S31500001A80334601F077FC002840F087822A4606F1AB
S31500001A900043DDE9040101F04FFC38BBDDE90C34FD
S31500001AA0CDE90434179B002BC0F258810E2F00F3AA
S31500001AB055814B4B03EBC70393ED007B0E9B002B2D
S31500001AC08DED007B80F2E580039B002B00F3E18027
S31500001AD00CD10022474B51EC170B01F0BBF9DDE9A5
S31500001AE0042301F03DFC002800F055820024254621
S31500001AF00E9B5646DB43069300272146584600F0C8
S31500001B0067FC002D00F0BD802FB1AF4203D03946EF
S31500001B10584600F05DFC2946584600F059FCB0E0F6
S31500001B20E20705D50136D5E9002301F093F9012333
S31500001B306410083562E7022665E7039C069784E78A
S31500001B40274B0B9903EBC403544453E902230029A2
S31500001B5054D00020284901F0A7FA334656462A46B3
S31500001B6000F0C0FFCDE91001DDE9040101F022FC1F
S31500001B70054601F005F902460B463035DDE904015C
S31500001B8000F0B0FF02460B4606F8015BCDE90423E0
S31500001B90DDE9102301F0D0FB002872D100201249A4
S31500001BA0DDE9042300F09EFFDDE9102301F0C4FB0C
S31500001BB0002840F0B480A6423FF470AF00220B4BE1
S31500001BC0DDE9100101F046F90022084BCDE91001CC
S31500001BD0DDE9040101F03EF9CDE90401C4E700BFE7
S31500001BE0E8360000C03600000000F03F0000244048
S31500001BF000001C40000014400000E03F31465646FD
S31500001C00284601F027F91594CDE91001DDE9040114
S31500001C1001F0D0FB054601F0B3F8024630350B461D
S31500001C20DDE9040100F05EFF06F8015B02460B46A3
S31500001C30A642CDE904234FF0000224D1AB4BDDE9E7
S31500001C40100100F051FF02460B46DDE9040101F0E8
S31500001C5091FB002863D10020A449DDE9102300F0A0
S31500001C6041FF02460B46DDE9040101F065FB002851
S31500001C703FF414AF159E731E159316F8013C302BD6
S31500001C80F8D0069F3BE09A4B01F0E4F8CDE9040159
S31500001C90BCE7DDE90445564620462946DDE9002332
S31500001CA001F002FA01F086FB804601F069F8DDE9F1
S31500001CB0002301F0CFF80246204608F130040B4617
S31500001CC0294600F00FFF039D06F8014BA6EB0A0418
S31500001CD002460B46A54234D100F006FF04460D46E7
S31500001CE0DDE9002301F046FBC0B920462946DDE9BF
S31500001CF0002301F017FB10B118F0010F0ED1494671
S31500001D00584600F065FB002301373370139B1F60B4
S31500001D10239B002B00F03C821E6039E20697334677
S31500001D201E4613F8012D392A07D19A45F8D1069A8D
S31500001D300132069230228AF800201A7801321A708F
S31500001D409FE700226A4B01F085F800220023044633
S31500001D500D4601F0E7FA00289ED0D0E70B9A002A3C
S31500001D6000F0E180099A012A00F3C480149A002A3F
S31500001D7000F0B78003F233430A9C4646089A0121D5
S31500001D80584698441A44089200F0D8FB05465EB1BE
S31500001D90089B002B08DDB342089AA8BF3346A8EB80
S31500001DA00308F61AD31A08930A9BF3B10B9B002B70
S31500001DB000F0BD808CB129462246584600F078FCDA
S31500001DC04A4601460546584600F0CEFB494606906F
S31500001DD0584600F0FDFA069B99460A9B1A1B04D04A
S31500001DE04946584600F064FC81460121584600F0F9
S31500001DF0A5FB0F9B0446002B00F0CE811A46014638
S31500001E00584600F055FC099B0446012B00F39580CB
S31500001E10049B002B40F08D80059BC3F31303002B1E
S31500001E2040F08980059B23F000431B0D1B052BB159
S31500001E30089B08F101080133089301230A930F9BBD
S31500001E40002B00F0AF81236904EB8303186900F0CF
S31500001E5029FBC0F12000089B184410F01F0077D022
S31500001E60C0F12003042B6BDDC0F11C00089B8044ED
S31500001E70034406440893B8F1000F05DD494642467F
S31500001E80584600F06FFC8146089B002B05DD214675
S31500001E901A46584600F066FC0446129B002B59D0A1
S31500001EA02146484600F0CAFC002853DA7B1E494604
S31500001EB00A2258460693002300F0ACFA0B9B814693
S31500001EC0002B00F07181002329460A22584600F0B3
S31500001ED0A1FA009B0546002B67DC099B022B41DC1F
S31500001EE063E0169BC3F1360346E700BF0000E03F00
S31500001EF000002440039B5C1E0A9BA34209DB1C1BBB
S31500001F00039B002BBFF639AF039BA8EB0306002308
S31500001F1034E70A9B46460F9AE31A0A9400241A44A9
S31500001F20039B0F922AE70A9C46460B9D2FE70A9AC7
S31500001F3056E7002382E7049B80E700230A9382E7A3
S31500001F4099D01C33089A1A4498441E44089292E782
S31500001F500346F6E7039B0697002B20DC0093099BBC
S31500001F60022B1EDD009B002B7FF4C2AD214605220D
S31500001F70584600F04FFA01460446484600F05EFC1B
S31500001F8000287FF7B5AD3123564606F8013B069B80
S31500001F9001330693B0E5039C06972546F3E7039BBA
S31500001FA000930B9B002B00F00381002E05DD2946D4
S31500001FB03246584600F0D6FB05460A9B002B5AD0FF
S31500001FC06968584600F0C4F9064628B9834B0246AC
S31500001FD040F2EF21FFF75FBB2A6905F10C010C30D7
S31500001FE002329200FFF79CFA01223146584600F071
S31500001FF0B9FB0AF101032F4605460393009B5344A0
S315000020000B93049B03F001030A93039B2146484666
S31500002010013B0093FFF799FA3946049000F1300826
S31500002020484600F00BFC2A4608902146584600F028
S3150000203021FCC268064602BB0146484600F0FEFB8C
S315000020400246314658460E9200F0C2F9099B0E9A96
S31500002050039E42EA03010A9B194310D1B8F1390FD6
S3150000206029D0089B002B02DD049B03F13108009B5D
S3150000207083F8008041E52846BBE70122E1E7089B9B
S31500002080002B04DB09990B430A990B4320D1002A44
S31500002090EDDD49460122584600F064FB21468146A3
S315000020A000F0CCFB002803DCE1D118F0010FDED0F4
S315000020B0B8F1390FD8D13923009A137033461E462A
S315000020C0013B16F8012C392A51D001321A7014E559
S315000020D0002A07DDB8F1390FEDD008F10103009AA7
S315000020E013700AE5039B0B9A03F8018C934228D0E0
S315000020F0494600230A22584600F08CF9AF42814631
S315000021004FF000034FF00A023946584607D100F057
S3150000211081F907460546039B0133039375E700F0F3
S3150000212079F92946074600230A22584600F072F933
S315000021300546F0E7009B0027002BCCBF1E46012674
S31500002140564449460122584600F00CFB214681467A
S3150000215000F074FB0028B1DC02D118F0010FADD1FC
S3150000216033461E4613F8012D302AFAD0C5E49A45A7
S31500002170A5D1069B0133069331238AF80030BCE4CF
S31500002180239BDFF85CA01BB10AF10803239A1360B6
S31500002190504619B0BDE8F08F099B012B7FF738AE8A
S315000021A00F9B0A93012056E6009B002B7FF7D7AEC4
S315000021B0564621464846FFF7C8F900F13008009B0D
S315000021C006F8018BA6EB0A029342B3DD49460023CB
S315000021D00A22584600F01EF98146EAE73B3600001F
S315000021E0BE350000024B0146186800F025B800BF56
S315000021F00400002070B50F4E0C460546316811B933
S3150000220000F028FC30602146284600F023FC431CE1
S3150000221003D14FF0FF34204670BDC41C24F00304E4
S31500002220A042F8D0211A284600F014FC0130F2D161
S31500002230EFE700BFDC0400202DE9F843CD1C06467D
S3150000224025F0030508350C2D38BF0C25002D01DBC4
S31500002250A94204D90C2333600020BDE8F883DFF8D7
S31500002260D48000F069F8D8F800301C4644BB2946F3
S315000022703046FFF7BFFF431C044658D1D8F800404C
S315000022802746002F43D1002C4BD0236839463046D1
S3150000229004EB030900F0DEFB814542D1216830469C
S315000022A06D1A2946FFF7A6FF01303AD023682B4462
S315000022B02360D8F800305A6862BBC8F800700FE097
S315000022C02268521B20D40B2A17D96119A342256014
S315000022D018BF5960636808BFC8F8001062514B60A8
S315000022E0304600F02FF804F10B00231D20F0070004
S315000022F0C21A1CBF1B1AA350AFE76268A3420CBFE9
S31500002300C8F800205A60EBE723466468AEE73C460F
S315000023107F68B6E71A465B68A342FBD10023536089
S31500002320DEE70C233046336000F00CF894E70560D6
S31500002330D6E700BFE00400200148FFF7EFB800BF72
S31500002340D80400200148FFF7EAB800BFD8040020EF
S3150000235070B5C66904460D4676B91020FFF742FFF0
S315000023600246E06120B9184B6B211848FEF7ACFB1A
S31500002370C0E901660660C660E669F36883B1E36991
S31500002380DB6853F82500B8B90121204601FA05F6A5
S31500002390721D920000F06EFB60B1C0E901560EE0BE
S315000023A021220421204600F065FBE369F060DB682A
S315000023B0002BE4D1002070BD026843F825200023DD
S315000023C0C0E90333F7E700BFCB3500004C36000009
S315000023D070B5C66905460C4676B91020FFF702FFB0
S315000023E00246E86120B9094B8F210948FEF76CFBCC
S315000023F0C0E901660660C6603CB1EB696268DB68ED
S3150000240053F82210216043F8224070BDCB350000FE
S315000024104C3600002DE9F04101F1140C07460C463C
S315000024201E460D690020DCF80030013099B2854265
S3150000243002FB01614FEA13464FEA114389B202FBE0
S31500002440063301EB03414FEA13464CF8041BEADC62
S315000024500EB3A368AB4219DC616838460131FFF759
S3150000246077FF804628B902460C4BBA210C48FEF786
S315000024702BFB226904F10C010C3002329200FFF7AB
S315000024804FF8214644463846FFF7A2FF04EB850382
S3150000249001355E6125612046BDE8F0813B360000CE
S315000024A04C360000B0F5803F034636BF03040020DB
S315000024B01020B3F1807F3CBF1B020830B3F1805F70
S315000024C03CBF1B010430B3F1804F3CBF9B00023080
S315000024D0002B05DB13F0804F00F1010008BF202020
S315000024E070470368024613F007000BD0D90721D4C2
S315000024F0980747BF5B0801209B0802204CBF13606A
S315000025001360704799B209B91B0C1020D9B209B9EA
S3150000251008301B0A190704BF1B090430990704BFBA
S315000025209B080230D90703D45B0800F1010003D0F1
S3150000253013607047002070472020704710B50C4686
S315000025400121FFF705FF024628B9054B40F2451168
S315000025500448FEF7B9FA01234461036110BD00BFC8
S315000025603B3600004C3600002DE9F04F17460A694D
S31500002570894685B03B699A42A2BF3B460F469946BB
S315000025803D69BB68D9F810A0796805EB0A06B34225
S31500002590B8BF0131FFF7DCFE30B90246424B4FF4BB
S315000025A0B1714248FEF790FA00F11404002204EBE0
S315000025B0860E2346734520D307F1140809F114014A
S315000025C008EB850501EB8A030293EB1B1537153BD8
S315000025D023F003030433BD4238BF04230193029B57
S315000025E003918B420CD8002E03DD5EF8043D002BD0
S315000025F057D0066105B0BDE8F08F43F8042BD9E744
S31500002600B1F800A0BAF1000F21D0C446A1460027B8
S315000026105CF8042BD9F800301FFA82FB65459BB2A3
S315000026204FEA12420AFB0B333B44D9F800704FEADB
S3150000263017470AFB027202EB13429BB24FEA12479C
S3150000264043EA024349F8043BE2D8019BE750039B67
S315000026500431B3F80290B9F1000F20D02368474641
S31500002660A4464FF0000AB7F800B09BB2BCF80220AF
S3150000267009FB0B22524443EA02434CF8043B57F849
S31500002680043B4FEA134ABCF80030BD4209FB0A334B
S3150000269003EB12434FEA134AE5D8019AA3500434D8
S315000026A09DE7013E9FE700BF3B3600004C36000029
S315000026B02DE9F843154612F0030207460E4607D0E9
S315000026C0013A254C002354F82220FFF7A3FE0646C4
S315000026D0AD103DD0FC697CB91020FFF783FD0246A2
S315000026E0F86128B91D4B40F2B3111D48FEF7ECF90D
S315000026F0C0E901440460C460D7F81C80D8F80840DB
S315000027004CB940F271213846FFF718FF0023044602
S31500002710C8F8080003604FF00009EB070AD53146F8
S3150000272022463846FFF720FF804631463846464661
S31500002730FFF74EFE6D100BD0206838B922462146B1
S315000027403846FFF711FF2060C0F800900446E4E722
S315000027503046BDE8F88300BFB0360000CB35000038
S315000027604C3600002DE9F0470C46074691464FEAE5
S31500002770621A2369496803EB6218A36808F1010627
S31500002780B3420BDB3846FFF7E3FD054648B9024680
S31500002790284B4FF4EF712848FEF796F901315B009C
S315000027A0EEE7002300F1140100F11002184653452C
S315000027B033DB2AEAEA7A04F11403206919F01F09C7
S315000027C001EB8A0103EB800C2BD0C9F1200E8A465F
S315000027D00022186800FA09F010434AF8040B53F86F
S315000027E0042B9C4522FA0EF2F3D8ACEB040304F159
S315000027F01500153B23F003030433604588BF04230B
S31500002800CA500AB108F10206013E384621462E6139
S31500002810FFF7DEFD2846BDE8F087013342F8040FD6
S31500002820C5E7043953F8042B9C4541F8042FF9D821
S31500002830EAE700BF3B3600004C36000003460A6953
S315000028400069801A30B50ED11433143103EB8204BB
S3150000285001EB820154F8045D51F8042D954203D032
S3150000286005D24FF0FF3030BDA342F3D3FBE7012082
S31500002870F9E7FFFF2DE9F74F89460646114614464C
S315000028804846FFF7DBFF051E12D129463046FFF703
S315000028905FFD024628B9414B40F237214048FEF71A
S315000028A013F90123C0E90435104603B0BDE8F08FE3
S315000028B0BCBF4B46A1463046B8BF0125D9F8041027
S315000028C0B4BF1C460025FFF743FD024618B9334B3B
S315000028D040F24521E2E7D9F8107004F1140E26699A
S315000028E000F1140BC56009F1140509F110030EEB94
S315000028F0860605EB8708D9464FF0000C0193019B2D
S315000029005EF8040B53F804AF764501931FFA8AF379
S31500002910194683B24FEA1040A1EB0303C0EB1A40FD
S31500002920634400EB23409BB24FEA204C43EA00434A
S3150000293049F8043BE3D8331B1534153B23F0030356
S315000029400433A64238BF04231D445B442C461E466E
S3150000295044450ED308F10301491B033D21F0030151
S31500002960A84538BF00210B4453F8041D99B11761DF
S315000029709AE754F8041BE6461FFA81FC080C7144DA
S31500002980F44489B200EB2C4041EA00414FEA204C66
S3150000299046F8041BDCE7013FE6E700BF3B360000D4
S315000029A04C3600002DE9F7430F460121164659EC37
S315000029B0108BFFF7CDFC044630B90246234B40F29C
S315000029C00F312348FEF780F8C9F30A55C9F31303FC
S315000029D00DB143F480130193B8F1000323D0684688
S315000029E00093FFF77EFDDDE90012D0B1C0F12003B0
S315000029F002FA03F3C2400B4301926361019B002B71
S31500002A00A3610CBF012202222261A5B1A5F23345C2
S31500002A100544C0F135003D603060204603B0BDE896
S31500002A20F0836161EAE701A8FFF75BFD019B2030B7
S31500002A3001226361E8E7A0F2324004EB82033860CA
S31500002A401869FFF72FFDC0EB4210E5E73B360000A3
S31500002A504C36000038B50023054D044608462B6069
S31500002A60FEF778F9431C02D12B6803B1236038BD09
S31500002A70D404002070B5A1FB025434B92946FFF7EF
S31500002A80DBFB064628B9304670BD0C2200260260E4
S31500002A90F9E72A462146FEF72FFDF4E782B001B991
S31500002AA001A942B14BB113780B601278101E18BF02
S31500002AB0012002B070471046FBE76FF00100F8E70F
S31500002AC00346084641B1FF2A04D98A224FF0FF3057
S31500002AD01A60704701200A707047FFFF81F00041BD
S31500002AE002E000BF83F0004330B54FEA41044FEAED
S31500002AF0430594EA050F08BF90EA020F1FBF54EA88
S31500002B00000C55EA020C7FEA645C7FEA655C00F023
S31500002B10E2804FEA5454D4EB5555B8BF6D420CDDF4
S31500002B202C4480EA020281EA030382EA000083EA77
S31500002B30010180EA020281EA0303362D88BF30BD17
S31500002B4011F0004F4FEA01314FF4801C4CEA11316D
S31500002B5002D0404261EB410113F0004F4FEA0333CC
S31500002B604CEA133302D0524263EB430394EA050F57
S31500002B7000F0A780A4F10104D5F1200E0DDB02FAC6
S31500002B800EFC22FA05F2801841F1000103FA0EF25A
S31500002B90801843FA05F359410EE0A5F120050EF120
S31500002BA0200E012A03FA0EFC28BF4CF0020C43FA51
S31500002BB005F3C01851EBE37101F0004507D54FF05E
S31500002BC0000EDCF1000C7EEB00006EEB0101B1F5AE
S31500002BD0801F1BD3B1F5001F0CD349085FEA3000F4
S31500002BE04FEA3C0C04F101044FEA445212F5800FFF
S31500002BF080F09A80BCF1004F08BF5FEA500C50F19C
S31500002C00000041EB045141EA050130BD5FEA4C0C7E
S31500002C10404141EB0101013C28BFB1F5801FE9D2DB
S31500002C2091F0000F04BF01460020B1FA81F308BFFE
S31500002C302033A3F10B03B3F120020CDA0C3208DDCA
S31500002C4002F1140CC2F10C0201FA0CF021FA02F1A5
S31500002C500CE002F11402D8BFC2F1200C01FA02F115
S31500002C6020FA0CFCDCBF41EA0C019040E41AA2BF3A
S31500002C7001EB0451294330BD6FEA04041F3C1CDA02
S31500002C800C340EDC04F11404C4F1200220FA04F022
S31500002C9001FA02F340EA030021FA04F345EA0301CC
S31500002CA030BDC4F10C04C4F1200220FA02F001FA8E
S31500002CB004F340EA0300294630BD21FA04F0294610
S31500002CC030BD94F0000F83F4801306BF81F48011A9
S31500002CD00134013D4EE77FEA645C18BF7FEA655C1C
S31500002CE029D094EA050F08BF90EA020F05D054EAEE
S31500002CF0000C04BF1946104630BD91EA030F1EBFF3
S31500002D000021002030BD5FEA545C05D140004941F6
S31500002D1028BF41F0004130BD14F580043CBF01F5E9
S31500002D20801130BD01F0004545F0FE4141F47001CF
S31500002D304FF0000030BD7FEA645C1ABF19461046AA
S31500002D407FEA655C1CBF0B46024650EA013406BFAB
S31500002D5052EA033591EA030F41F4002130BD00BF6A
S31500002D6090F0000F04BF0021704730B54FF4806427
S31500002D7004F132044FF000054FF0000150E700BFA8
S31500002D8090F0000F04BF0021704730B54FF4806407
S31500002D9004F1320410F0004548BF40424FF00001F4
S31500002DA03EE700BF42004FEAE2014FEA31014FEA37
S31500002DB002701FBF12F07F4393F07F4F81F0605186
S31500002DC0704732F07F4208BF704793F07F4F04BFD1
S31500002DD041F40021704730B54FF4607401F00045AE
S31500002DE021F000411CE700BF50EA010208BF70470E
S31500002DF030B54FF000050AE050EA010208BF7047FF
S31500002E0030B511F0004502D5404261EB41014FF467
S31500002E10806404F132045FEA915C3FF4D8AE4FF06F
S31500002E2003025FEADC0C18BF03325FEADC0C18BF52
S31500002E30033202EBDC02C2F1200300FA03FC20FAA3
S31500002E4002F001FA03FE40EA0E0021FA02F11444F0
S31500002E50BDE600BF70B54FF0FF0C4CF4E06C1CEA09
S31500002E6011541DBF1CEA135594EA0C0F95EA0C0F7A
S31500002E7000F0DEF82C4481EA030621EA4C5123EAED
S31500002E804C5350EA013518BF52EA033541F480111C
S31500002E9043F4801338D0A0FB02CE4FF00005E1FBCF
S31500002EA002E506F00042E0FB03E54FF00006E1FB19
S31500002EB003569CF0000F18BF4EF0010EA4F1FF045C
S31500002EC0B6F5007F64F5407404D25FEA4E0E6D419C
S31500002ED046EB060642EAC62141EA55514FEAC520AD
S31500002EE040EA5E504FEACE2EB4F1FD0C88BFBCF529
S31500002EF0E06F1ED8BEF1004F08BF5FEA500E50F1DA
S31500002F00000041EB045170BD06F0004646EA01019F
S31500002F1040EA020081EA0301B4EB5C04C2BFD4EBD1
S31500002F200C0541EA045170BD41F480114FF0000ECA
S31500002F30013C00F3AB8014F1360FDEBF002001F038
S31500002F40004170BDC4F10004203C35DA0C341BDCB2
S31500002F5004F11404C4F1200500FA05F320FA04F084
S31500002F6001FA05F240EA020001F0004221F00041B8
S31500002F7010EBD37021FA04F642EB06015EEA430E2B
S31500002F8008BF20EAD37070BDC4F10C04C4F120055B
S31500002F9000FA04F320FA05F001FA04F240EA02000E
S31500002FA001F0004110EBD37041F100015EEA430EDF
S31500002FB008BF20EAD37070BDC4F1200500FA05F2FF
S31500002FC04EEA020E20FA04F301FA05F243EA02037E
S31500002FD021FA04F001F0004121FA04F220EA02008D
S31500002FE000EBD3705EEA430E08BF20EAD37070BDD3
S31500002FF094F0000F0FD101F00046400041EB0101B3
S3150000300011F4801F08BF013CF7D041EA060195F094
S31500003010000F18BF704703F00046520043EB03034E
S3150000302013F4801F08BF013DF7D043EA060370473B
S3150000303094EA0C0F0CEA135518BF95EA0C0F0CD046
S3150000304050EA410618BF52EA4306D1D181EA03018C
S3150000305001F000414FF0000070BD50EA410606BF86
S315000030601046194652EA430619D094EA0C0F02D1CB
S3150000307050EA013613D195EA0C0F05D152EA033610
S315000030801CBF104619460AD181EA030101F000412E
S3150000309041F0FE4141F470014FF0000070BD41F077
S315000030A0FE4141F4780170BD70B54FF0FF0C4CF451
S315000030B0E06C1CEA11541DBF1CEA135594EA0C0F70
S315000030C095EA0C0F00F0A7F8A4EB050481EA030EBD
S315000030D052EA03354FEA013100F088804FEA0333A4
S315000030E04FF0805545EA131343EA12634FEA022272
S315000030F045EA111545EA10654FEA00260EF0004133
S315000031009D4208BF964244F1FD0404F5407402D284
S315000031105B084FEA3202B61A65EB03055B084FEA15
S3150000312032024FF480104FF4002CB6EB020E75EB12
S31500003130030E22BFB61A754640EA0C005B084FEA3A
S315000031403202B6EB020E75EB030E22BFB61A7546B7
S3150000315040EA5C005B084FEA3202B6EB020E75EB02
S31500003160030E22BFB61A754640EA9C005B084FEA7A
S315000031703202B6EB020E75EB030E22BFB61A754687
S3150000318040EADC0055EA060E18D04FEA051545EA76
S3150000319016754FEA06164FEAC30343EA52734FEA1F
S315000031A0C2025FEA1C1CC0D111F4801F0BD141EA98
S315000031B000014FF000004FF0004CB6E711F4801FFD
S315000031C004BF01430020B4F1FD0C88BFBCF5E06FDD
S315000031D03FF6AFAEB5EB030C04BFB6EB020C5FEAED
S315000031E0500C50F1000041EB045170BD0EF0004E42
S315000031F04EEA113114EB5C04C2BFD4EB0C0541EA74
S31500003200045170BD41F480114FF0000E013C90E670
S3150000321045EA060E8DE60CEA135594EA0C0F08BF34
S3150000322095EA0C0F3FF43BAF94EA0C0F0AD150EA33
S3150000323001347FF434AF95EA0C0F7FF425AF1046C6
S3150000324019462CE795EA0C0F06D152EA03353FF4EE
S31500003250FDAE1046194622E750EA410618BF52EA6B
S3150000326043067FF4C5AE50EA41047FF40DAF52EA3F
S3150000327043057FF4EBAE12E74FF0FF3C06E000BFDC
S315000032804FF0010C02E000BF4FF0010C4DF804CDE9
S315000032904FEA410C7FEA6C5C4FEA430C18BF7FEAA9
S315000032A06C5C1BD001B050EA410C0CBF52EA430CD7
S315000032B091EA030F02BF90EA020F0020704710F157
S315000032C0000F91EA030F58BF994208BF90422CBFE6
S315000032D0D8176FEAE37040F0010070474FEA410CDF
S315000032E07FEA6C5C02D150EA013C07D14FEA430CFD
S315000032F07FEA6C5CD6D152EA033CD3D05DF8040B6E
S31500003300704700BF8446104662468C46194663469F
S3150000331000E000BF01B5FFF7B7FF002848BF10F176
S31500003320000F01BD4DF808EDFFF7F4FF0CBF0120BB
S3150000333000205DF808FB00BF4DF808EDFFF7EAFF37
S3150000334034BF012000205DF808FB00BF4DF808EDF2
S31500003350FFF7E0FF94BF012000205DF808FB00BFE7
S315000033604DF808EDFFF7CEFF94BF012000205DF871
S3150000337008FB00BF4DF808EDFFF7C4FF34BF01207E
S3150000338000205DF808FB00BF4FEA410C7FEA6C5C49
S3150000339002D150EA013C0AD14FEA430C7FEA6C5C49
S315000033A002D152EA033C02D14FF0000070474FF0C1
S315000033B0010070474FEA410212F5001215D211D5ED
S315000033C06FF47873B3EB625212D94FEAC12343F01C
S315000033D0004343EA505311F0004F23FA02F018BF9E
S315000033E0404270474FF00000704750EA013005D167
S315000033F011F0004008BF6FF0004070474FF000002A
S31500003400704700BF4275696C7420776974682052F2
S31500003410656E6573617320416476616E63656420D1
S31500003420466C657869626C6520536F667477617265
S3150000343065205061636B6167652076657273696F9D
S315000034406E20352E382E3000352E382E30000000F6
S3150000345000000805F8B500BFF8BC08BC9E467047DA
S31500003460F8B500BFF8BC08BC9E4670474653505F8F
S3150000347053554343455353203D3D2065727200002A
S315000034802E2E2F7372632F68616C5F656E7472796E
S315000034902E6300000A48656C6C6F20576F726C646F
S315000034A0212E0A00524120453253545544494F00BB
S315000034B068616C5F656E74727900FFFF0903000036
S315000034C00C000C010C020C030000000000000000C0
S315000034D0D101000000000000DC3400000001000003
S315000034E0000000200F00FFFF00000000FFFF0000AB
S315000034F004000000FC340000000000000000010091
S315000035000801000000000105090100000000010596
S315000035100A0100000000010000030000B601B70127
S31500003520B801B90100000000000000000000000022
S315000035300000000000000000000000000000000085
S315000035400000000000000000000000000000000075
S315000035500000000000000000000000000000000065
S315000035600000000000000000000000000000000055
S315000035700000000000000000000000000000000045
S315000035800000000000000000000000000000000035
S315000035900000000000000000000000000204030418
S315000035A00404FFFF0100020008001000494E460017
S315000035B0696E66004E414E006E616E003000496EC7
S315000035C066696E697479004E614E005245454E54E7
S315000035D0206D616C6C6F63207375636365656465EC
S315000035E064002F646174612F6A656E6B696E732F58
S315000035F0776F726B73706163652F474E552D746FCD
S315000036006F6C636861696E2F61726D2D31332F7334
S3150000361072632F6E65776C69622D63796777696E61
S315000036202F6E65776C69622F6C6962632F737464A1
S315000036306C69622F64746F612E630042616C6C6FFB
S315000036406320737563636565646564002F646174E4
S31500003650612F6A656E6B696E732F776F726B73700D
S315000036606163652F474E552D746F6F6C6368616992
S315000036706E2F61726D2D31332F7372632F6E6577E6
S315000036806C69622D63796777696E2F6E65776C69F1
S31500003690622F6C6962632F7374646C69622F6D703C
S315000036A07265632E63004300504F534958002E0045
S315000036B005000000190000007D000000FFFFFFFF6D
S315000036C00080E03779C34143176E05B5B5B8934618
S315000036D0F5F93FE9034F384D321D30F94877825AE4
S315000036E03CBF737FDD4F1575000000000000F03F02
S315000036F000000000000024400000000000005940C7
S315000037000000000000408F40000000000088C34019
S3150000371000000000006AF8400000000080842E418E
S3150000372000000000D01263410000000084D79741DA
S315000037300000000065CDCD41000000205FA00242E0
S31500003740000000E876483742000000A2941A6D4255
S31500003750000040E59C30A2420000901EC4BCD64248
S3150000376000003426F56B0C430080E03779C34143F3
S3150000377000A0D8855734764300C84E676DC1AB4369
S31500003780003D9160E458E143408CB5781DAF154487
S3150000379050EFE2D6E41A4B4492D54D06CFF0804462
S315000037A0F64AE1C7022DB544B49DD9794378EA4477
S315000037B000202020202020202020282828282820FB
S315000037C020202020202020202020202020202020F3
S315000037D0208810101010101010101010101010105B
S315000037E0100404040404040404040410101010104B
S315000037F01010414141414141010101010101010115
S315000038000101010101010101010101011010101066
S3150000381010104242424242420202020202020202E6
S31500003820020202020202020202020202101010103A
S315000038302000000000000000000000000000000062
S315000038400000000000000000000000000000000072
S315000038500000000000000000000000000000000062
S315000038600000000000000000000000000000000052
S315000038700000000000000000000000000000000042
S315000038800000000000000000000000000000000032
S315000038900000000000000000000000000000000022
S315000038A00000000000000000000000000000000012
S315000038B000FFFFFF1000000000000000017A520028
S315000038C0027C0E011B0C0D00100000001800000009
S315000038D06ADCFFFF1000000000000000000000008E
S315000038E044000EDD08000020000000009C030020BC
S315000038F0040400206C04002000000000000000000A
S3150000390000000000000000000000000000000000B1
S3150000391000000000000000000000000000000000A1
S315000039200000000000000000000000000000000091
S31500003930000000004300000000000000000000003E
S315000039400000000000000000000000000000000071
S31500003950000000004300000000000000000000001E
S315000039600000000000000000000000000000000051
S3150000397000000000430000000000000000000000FE
S315000039800000000000000000000000000000000031
S3150000399000000000430000000000000000000000DE
S315000039A00000000000000000000000000000000011
S315000039B000000000430000000000000000000000BE
S315000039C000000000000000000000000000000000F1
S315000039D0000000004300000000000000000000009E
S315000039E000000000000000000000000000000000D1
S315000039F0000000004300000000000000000000007E
S31500003A0000000000000000000000000000000000B0
S31500003A1000000000C12A00009D2A000000000000EE
S31500003A20B0370000AE360000AF360000AF360000FB
S31500003A30AF360000AF360000AF360000AF360000EC
S31500003A40AF360000AF360000AF360000FFFFFFFFC5
S31500003A50FFFFFFFFFFFFFFFFFFFF000001004153D5
S31500003A60434949000000000000000000000000007B
S31500003A7000000000000000000000000000004153AC
S31500003A80434949000000000000000000000000005B
S31500003A900000000000000000000000000000000020
S30D00003AA0AD01000085010000E4
S3150100A100FFFFFFFFFFFFFFFFFFFFFFFFFFFFFFFF58
S3090100A110FFFFFFFF48
S3090100A134FFFFFFFF24
S3150100A200FEF1FFFFFFFFFFFFFFFFFFFFFFFFFFFF66
S3150100A210FFFFFFFFFFFFFFFFFFFFFFFFFFFFFFFF47
S3150100A220FFFFFFFFFFFFFFFFFFFFFFFFFFFFFFFF37
S3150100A230FFFFFFFFFFFFFFFFFFFFFFFFFFFFFFFF27
S3150100A240FFFFFFFFFFFFFFFFFFFFFFFFFFFFFFFF17
S3150100A250FFFFFFFFFFFFFFFFFFFFFFFFFFFFFFFF07
S3150100A260FFFFFFFFFFFFFFFFFFFFFFFFFFFFFFFFF7
S3150100A270FFFFFFFFFFFFFFFFFFFFFFFFFFFFFFFFE7
S3150100A280F8F0FFFFFFFFFFFFFFFFFFFFFFFFFFFFED
S3150100A290FFFFFFFFFFFFFFFFFFFFFFFFFFFFFFFFC7
S3150100A2A0FFFFFFFFFFFFFFFFFFFFFFFFFFFFFFFFB7
S3150100A2B0FFFFFFFFFFFFFFFFFFFFFFFFFFFFFFFFA7
S3150100A2C0FFFFFFFFFFFFFFFFFFFFFFFFFFFFFFFF97
S70500000D9954
