S01700005241344C315F50726F6A65637431302E7372656332
S31500000000C0050020450900005D0700004109000009
S3150000001041090000410900004109000041090000B2
S315000000200000000000000000000000004109000080
S3150000003041090000000000004109000041090000DC
S315000000400348044B834202D0034B03B11847704761
S31500000050080000200800002000000000064B0749A9
S31500000060C91A891048BF0131491003D0044B0BB19E
S3150000007001481847704700BF08000020080000200C
S315000000800000000010B5064C237843B9FFF7D8FFEF
S31500000090044B13B10448AFF300800123237010BD55
S315000000A02000002000000000E40B000008B5054B0E
S315000000B01BB105490548AFF30080BDE80840FFF7CE
S315000000C0CDBF00BF0000000024000020E40B0000AC
S315000000D008B50849084800F035F920B9BDE80840D8
S315000000E0054800F0FBB81421044B054A054800F00A
S315000000F001FB00BFF80A000044000020C40A00000B
S31500000100EC0A0000D80A0000022800D07047024915
S31500000110024800F0A7B800BF200B00003C000020FA
S3150000012008B5FFF7D5FF002008BD00BF2DE9F8434D
S315000001300388BBB107464FF00008DFF8789000242B
S315000001401B4D4FEAC8067B6835F8022B991989883A
S31500000150914209D00134032CF5D13B8808F10108FE
S315000001604345ECD8BDE8F8839B5904F1200203F01F
S31500000170B853B3F1807F19F812300CD0DB09E9D0FF
S3150000018019F81230012123F08003C82009F8123033
S3150000019000F0B8FADEE7DB09DCD119F812300121EC
S315000001A043F08003C82009F8123000F0ABFAD1E71B
S315000001B0540B000000300840F8B50646FFF7B6FFBE
S315000001C0EFF31082012383F31088234F3B681BB99A
S315000001D02249CB704023CB703B6801333B6082F3EE
S315000001E01088338823B300211D4D08E01B011344FA
S315000001F045F82340328801318BB29A4218D9736888
S3150000020053F8314003EBC1029288E0034FEA122310
S31500000210D2B2EBD502EB031055F820E024F4803C73
S315000002202EF4803E45F820E01B0145F820C0DEE7AD
S31500000230EFF31082012383F310883B6813B13B6808
S31500000240013B3B603B681BB980200449CB70C870FA
S3150000025082F31088F8BD00BFAC00002000FD01400D
S3150000026000F8014008B5034B03600846FFF7A4FFFA
S31500000270002008BD54524F5030B4037B44680161DE
S31500000280227C0BB90232D2B2134D247845F82210E3
S315000002904A1E64B949088468ABB161608368996095
S315000002A0037B816863B992B20A8030BC7047012C27
S315000002B00FD0022C18BF0021EDD18168002BF2D09F
S315000002C00A6030BC704789B2618083689980037B7D
S315000002D0F3E71146DFE700BF6400002010B5037B9B
S315000002E084680BB30C34227802F001022378C3F33E
S315000002F040039A42FAD143681B78012B16D0F123AA
S31500000300237043681B78012B01D0002010BD237891
S315000003109B07FCD5037B826863B14FF0FF335360C4
S3150000032082680020936010BD0834DCE70169FFF79E
S31500000330A3FFE4E74FF6FF735380826800209380A3
S3150000034010BD00BF01232DE9F04F037341600A7C05
S315000003500446120202F1804202F568220D4683B07D
S315000003608260EFF3108083F31088217B002979D017
S31500000370297C032900F28C80C1F1030103FA01F103
S31500000380CB435C49CE680C3133400B60237B002B9A
S315000003905FD02E7C584B5949032E88BF0B461B68ED
S315000003A080F3108800231373137BC3F340019B076C
S315000003B0FAD4917394F80CE02F7AEB69D4F808809C
S315000003C0BEF1000F42D008F10C01DA781E7802F077
S315000003D0070218790192002E32D1002F50D166689B
S315000003E093F801C096F800A00CF07709BAF1020F55
S315000003F056D09B7813F0070305D040F00400032B7A
S3150000040008BF40F00100019B087181F806904B700F
S315000004108F7020466968FFF72FFF95F912000028B4
S3150000042003DB2246697C00F0B7F900206B69344A89
S315000004306361AB692260C4E9060303B0BDE8F08FCF
S31500000440502E019A51D032430192C8E708F10801B3
S31500000450BBE7297C284B294E0231C9B2032988BF44
S3150000046033469CE7297C0231C9B2032984D9C1F1FC
S31500000470130103FA01F1CB431E490E69103183E7DC
S3150000048087F0020742EA0712D2B237460192A6E780
S31500000490C1F113018B401749DB430E69103173E735
S315000004A0D6F804B0D6F80CA00BF1FF36A6EB0A027C
S315000004B00CF0070B0CF0700CBBF1070F0CBF1646C7
S315000004C05646BCF1700F18BF5246BEF1000F04D05D
S315000004D0C8F80460A668B2608BE71FFA86FBA8F826
S315000004E002B096B2A268968083E742F050020027D7
S315000004F0019274E7004008400C4008401040084054
S3150000050054474100064B074993F826001A6A51F8EA
S315000005102030C2F302620449D3400B60704700BF2B
S3150000052000E0014008000020B8010020704700BF2D
S315000005302DE9F04101224AF203584FF400414FF0F1
S31500000540080C09263C4C3D4B3D4D3E48DFF808E182
S315000005506560E5603C4FA3F8FE83826002608EF81A
S31500000560C82F3A4A2760A1602161626193F826206C
S31500000570196A54F82220364DC1F30261CA402A6036
S3150000058083F813C483F8A26093F880241AB993F809
S3150000059081349F074BD0294E96F88034002B3BD0F0
S315000005A00022264B83F8812483F88024234991F87E
S315000005B0A030DE06C3F30010F9D4204A81F8A0006B
S315000005C092F8A030D906C3F30010F9D41B4982F87B
S315000005D0320091F83C301A07FBD54FF470600023C7
S315000005E0164A088581F82A3092F83C309B06FBD5DE
S315000005F005234FF425401749116282F8263092F8F8
S315000006002630116A54F82330C1F30261CB402B60C7
S31500000610A2F8FE03BDE8F0810121C82086F8801407
S3150000062000F070F896F88034012BFBD1B8E74FF450
S315000006307A70FFF77BFFB9E70800002000E0014071
S3150000064000127A0000700040006CDC020090D003BB
S31500000650B80100202112002100F07E4038B50025A7
S31500000660224C0121C82084F8285000F04BF884F869
S31500000670245094F82430002BFBD194F824301B49E5
S3150000068043F0020384F8243091F82430C3F3400089
S315000006909B07F9D4154A81F8220092F8223003F01C
S315000006A0FF00002BF9D192F84030104960F3C713D0
S315000006B082F8403091F84030DB09FBD191F84200D6
S315000006C00A4A63F3C71081F8420092F84230DB0908
S315000006D0FBD192F84400054963F3C71082F8440041
S315000006E091F84430DB09FBD138BD00BF003008402B
S315000006F0704700BF00BEFEE7A0F101000028FBD155
S31500000700704700BF4FF47A7310B400FB01F1114C2F
S31500000710114A2468B2FBF4F2A1FB03043CB9B0FB16
S31500000720F2F0800860B15DF8044BFFF7E5BF920078
S31500000730B1FBF2F1A1FB03132BB908460028F2D155
S315000007405DF8044B70474FF0FF3C5DF8044B604684
S31500000750FFF7D2BFB801002000CA9A3B70B500244B
S315000007600B4B0C4EB3F82021B3F84051ADB21540F7
S3150000077025FA04F3DB0704D556F82430E0B203B1BA
S3150000078098470134102CF3D1014BA3F8305170BDBA
S31500000790006000406C00002010B400F1604C134C67
S315000007A00901134BC9B20CF5614C8CF8001300F12A
S315000007B0C00144F8202053F8212022F4803243F867
S315000007C0212053F82130BFF35F8F012243099B009C
S315000007D000F01F0003F1604303F561438240C3F854
S315000007E080211A605DF8044B704700BFB0000020FE
S315000007F00060004030B5032083B000F077F86FF05A
S31500000800FF054FF0FF311D4C002322464FF0010E2D
S315000008101B488564CDE9001104F1800532F8020F0A
S31500000820590960B102A800EB810151F8080C03F0E8
S315000008301F0C0EFA0CFC20EA0C0041F8080CAA4228
S3150000084003F10103EAD1009A0E4B0D4903200A6712
S31500000850C3F88022019A4A67C3F8842200F016F88A
S315000008600023094834F8022F03F1C00101330AB10D
S3150000087040F82120AC42F5D103B030BD5A0B000040
S315000008800080004000E100E000600040EFF31081CE
S31500000890012383F31088124B33F8102092B22AB149
S315000008A033F81020013A92B223F8102033F81030B2
S315000008B09BB293B910B40B4A0B4CB2F8FE3334F822
S315000008C010009BB243F4254323EA0003A2F8FE334B
S315000008D081F310885DF8044B704781F310887047E8
S315000008E0B001002000E00140DC0B000030B4EFF363
S315000008F01081012383F310880E4A32F810309BB220
S315000009006BB90D4C0D4DB4F8FE3335F810C09BB2E3
S3150000091043EA0C0343F425439BB2A4F8FE3332F8B2
S31500000920103001339BB222F8103081F3108830BCAE
S31500000930704700BFB001002000E00140DC0B000062
S3150000094000BE704708B500F003F8FFF7E9FBFEE7C5
S315000009504FF4700270B52B4B2B4CC3F88820002047
S315000009609C60FFF7D1FBFFF7E3FD0120FFF7CCFB0F
S315000009702368A3F5806383F30A882448244A002168
S31500000980121A00F055F82348234A2449121A00F097
S3150000099057F8234D234B5B1B002B07DD00249E10CD
S315000009A055F8043B01349847A642F9DCFFF7AAFD47
S315000009B0FFF754FE0320FFF799FF00234FF6FF7061
S315000009C0194903F108020133092B21F81200F8D165
S315000009D000240320FFF75AFF0320FFF787FF134B7E
S315000009E003205C609C60DC601C61FFF74FFF022007
S315000009F0FFF78AFBFFF7FEFE2046BDE87040FFF7D3
S31500000A0077BE00BF00ED00E00000000020000020DF
S31500000A10BC0100200000002008000020E80B0000B8
S31500000A20000000200400002000FD014000000E40F0
S31500000A3002440346934200D1704703F8011BF9E7CD
S31500000A400A44431E914200D1704710B511F8014B7C
S31500000A50914203F8014FF9D110BDFFFF4275696C51
S31500000A607420776974682052656E657361732041DE
S31500000A706476616E63656420466C657869626C6550
S31500000A8020536F667477617265205061636B61678E
S31500000A90652076657273696F6E20352E382E3000AC
S31500000AA0352E382E3000000000000805F8B500BFCE
S31500000AB0F8BC08BC9E467047F8B500BFF8BC08BC39
S31500000AC09E4670474653505F535543434553532004
S31500000AD03D3D2065727200002E2E2F7372632F68C3
S31500000AE0616C5F656E7472792E6300FF68616C5F7E
S31500000AF0656E74727900FFFF00000000803E000002
S31500000B0000000000401F000000FFDF0000000000A2
S31500000B1000000000180B0000003303010000000273
S31500000B20050000002C0B0000000000000000010181
S31500000B3002010000000001010701000000000100A1
S31500000B400801000000000100000300000000010190
S31500000B5001050000020403040404FFFF0000000076
S31500000B60000000000000000000000000000000007F
S31500000B70000000000000000000000000000000006F
S31500000B80000000000000000000000000000000005F
S31500000B90000000000000000000000000000000004F
S31500000BA0000000000000000000000000000000003F
S31500000BB0000000000000000000000000000000002F
S31500000BC0000000000000000000000000000000001F
S31500000BD0000000000000000000000000010002000C
S30D00000BE00800100000000000EF
S30D00000BE8AD00000085000000CD
S3150100A100FFFFFFFFFFFFFFFFFFFFFFFFFFFFFFFF58
S3090100A110FFFFFFFF48
S3090100A134FFFFFFFF24
S3150100A200FEF1FFFFFFFFFFFFFFFFFFFFFFFFFFFF66
S3150100A210FFFFFFFFFFFFFFFFFFFFFFFFFFFFFFFF47
S3150100A220FFFFFFFFFFFFFFFFFFFFFFFFFFFFFFFF37
S3150100A230FFFFFFFFFFFFFFFFFFFFFFFFFFFFFFFF27
S3150100A240FFFFFFFFFFFFFFFFFFFFFFFFFFFFFFFF17
S3150100A250FFFFFFFFFFFFFFFFFFFFFFFFFFFFFFFF07
S3150100A260FFFFFFFFFFFFFFFFFFFFFFFFFFFFFFFFF7
S3150100A270FFFFFFFFFFFFFFFFFFFFFFFFFFFFFFFFE7
S3150100A280F8F0FFFFFFFFFFFFFFFFFFFFFFFFFFFFED
S3150100A290FFFFFFFFFFFFFFFFFFFFFFFFFFFFFFFFC7
S3150100A2A0FFFFFFFFFFFFFFFFFFFFFFFFFFFFFFFFB7
S3150100A2B0FFFFFFFFFFFFFFFFFFFFFFFFFFFFFFFFA7
S3150100A2C0FFFFFFFFFFFFFFFFFFFFFFFFFFFFFFFF97
S70500000945AC
