S01600005241344C315F50726F6A656374352E737265635F
S3150000000098040020C90600003D050000C506000052
S31500000010C5060000C5060000C5060000C5060000AE
S31500000020000000000000000000000000C5060000FF
S31500000030C506000000000000C5060000C506000059
S315000000400348044B834202D0034B03B11847704761
S31500000050080000200800002000000000064B0749A9
S31500000060C91A891048BF0131491003D0044B0BB19E
S3150000007001481847704700BF08000020080000200C
S315000000800000000010B5064C237843B9FFF7D8FFEF
S31500000090044B13B10448AFF300800123237010BD55
S315000000A020000020000000001409000008B5054BE0
S315000000B01BB105490548AFF30080BDE80840FFF7CE
S315000000C0CDBF00BF0000000024000020140900007E
S315000000D000B5174C83B0002120460DF1060200F052
S315000000E03BF89DF80630ABB1002240F20161204694
S315000000F000F044F8012120460DF1070200F02CF82B
S315000001009DF807306BB1002240F20A61204600F0EC
S3150000011035F8E0E7012240F20161204600F02EF8B2
S31500000120E8E7012240F20A61204600F027F8D2E70C
S315000001303C000020022800D070470249024800F027
S31500000140C9B800BF480800003C00002008B5FFF70A
S31500000150BFFF002008BD00BF10B40B0A064C1B01F0
S3150000016053FA81F154F821300020C3F340035DF8BF
S31500000170044B1370704700BF00F801400120CBB25A
S31500000180984080B202B900040B0A5B0103F1804378
S3150000019003F5F83398600020704700BF2DE9F84357
S315000001A00388BBB107464FF00008DFF878900024BB
S315000001B01B4D4FEAC8067B6835F8022B99198988CA
S315000001C0914209D00134032CF5D13B8808F101088E
S315000001D04345ECD8BDE8F8839B5904F1200203F0AF
S315000001E0B853B3F1807F19F812300CD0DB09E9D08F
S315000001F019F81230012123F08003C82009F81230C3
S3150000020000F070F9DEE7DB09DCD119F812300121C4
S3150000021043F08003C82009F8123000F063F9D1E7F3
S315000002208408000000300840F8B50646FFF7B6FF20
S31500000230EFF31082012383F31088234F3B681BB929
S315000002402249CB704023CB703B6801333B6082F37D
S315000002501088338823B300211D4D08E01B01134489
S3150000026045F82340328801318BB29A4218D9736817
S3150000027053F8314003EBC1029288E0034FEA1223A0
S31500000280D2B2EBD502EB031055F820E024F4803C03
S315000002902EF4803E45F820E01B0145F820C0DEE73D
S315000002A0EFF31082012383F310883B6813B13B6898
S315000002B0013B3B603B681BB980200449CB70C8708A
S315000002C082F31088F8BD00BF8400002000FD0140C5
S315000002D000F8014008B5034B03600846FFF7A4FF8A
S315000002E0002008BD54524F50064B074993F826008C
S315000002F01A6A51F82030C2F302620449D3400B60F7
S31500000300704700BF00E00140080000209000002078
S31500000310704700BF2DE9F04101224AF203584FF41D
S3150000032000414FF0080C09263C4C3D4B3D4D3E48E4
S31500000330DFF808E16560E5603C4FA3F8FE83826064
S3150000034002608EF8C82F3A4A2760A1602161626177
S3150000035093F82620196A54F82220364DC1F302611B
S31500000360CA402A6083F813C483F8A26093F88024F5
S315000003701AB993F881349F074BD0294E96F88034EA
S31500000380002B3BD00022264B83F8812483F880245F
S31500000390234991F8A030DE06C3F30010F9D4204AB1
S315000003A081F8A00092F8A030D906C3F30010F9D462
S315000003B01B4982F8320091F83C301A07FBD54FF4FE
S315000003C070600023164A088581F82A3092F83C307E
S315000003D09B06FBD505234FF425401749116282F889
S315000003E0263092F82630116A54F82330C1F30261A0
S315000003F0CB402B60A2F8FE03BDE8F0810121C820A6
S3150000040086F8801400F06EF896F88034012BFBD144
S31500000410B8E74FF47A70FFF77BFFB9E708000020D2
S3150000042000E0014000127A0000700040006CDC021F
S315000004300090D003900000202112002100F07E40A1
S3150000044038B50025224C0121C82084F8285000F038
S3150000045049F884F8245094F82430002BFBD194F802
S3150000046024301B4943F0020384F8243091F82430E9
S31500000470C3F340009B07F9D4154A81F8220092F88D
S31500000480223003F0FF00002BF9D192F840301049DA
S3150000049060F3C71382F8403091F84030DB09FBD196
S315000004A091F842000A4A63F3C71081F8420092F8B5
S315000004B04230DB09FBD192F84400054963F3C710CB
S315000004C082F8440091F84430DB09FBD138BD00BF07
S315000004D000300840704700BFA0F101000028FBD1A2
S315000004E0704700BF4FF47A7310B400FB01F1114C52
S315000004F0114A2468B2FBF4F2A1FB03043CB9B0FB39
S31500000500F2F0800860B15DF8044BFFF7E5BF92009A
S31500000510B1FBF2F1A1FB03132BB908460028F2D177
S315000005205DF8044B70474FF0FF3C5DF8044B6046A6
S31500000530FFF7D2BF9000002000CA9A3B70B5002496
S315000005400B4B0C4EB3F82021B3F84051ADB2154019
S3150000055025FA04F3DB0704D556F82430E0B203B1DC
S3150000056098470134102CF3D1014BA3F8305170BDDC
S31500000570006000404400002030B5032083B000F046
S3150000058077F86FF0FF054FF0FF311D4C0023224630
S315000005904FF0010E1B488564CDE9001104F180057A
S315000005A032F8020F590960B102A800EB810151F837
S315000005B0080C03F01F0C0EFA0CFC20EA0C0041F8A4
S315000005C0080CAA4203F10103EAD1009A0E4B0D4929
S315000005D003200A67C3F88022019A4A67C3F8842277
S315000005E000F016F80023094834F8022F03F1C00181
S315000005F001330AB140F82120AC42F5D103B030BD39
S315000006008A0800000080004000E100E00060004031
S31500000610EFF31081012383F31088124B33F8102077
S3150000062092B22AB133F81020013A92B223F8102080
S3150000063033F810309BB293B910B40B4A0B4CB2F896
S31500000640FE3334F810009BB243F4254323EA00033B
S31500000650A2F8FE3381F310885DF8044B704781F3EE
S31500000660108870478800002000E001400C09000057
S3150000067030B4EFF31081012383F310880E4A32F869
S3150000068010309BB26BB90D4C0D4DB4F8FE3335F8F6
S3150000069010C09BB243EA0C0343F425439BB2A4F873
S315000006A0FE3332F8103001339BB222F8103081F35A
S315000006B0108830BC704700BF8800002000E0014071
S315000006C00C09000000BE704708B500F003F8FFF7FC
S315000006D03DFDFEE74FF4700270B52B4B2B4CC3F873
S315000006E0882000209C60FFF725FDFFF713FE012000
S315000006F0FFF720FD2368A3F5806383F30A88244867
S31500000700244A0021121A00F055F82348234A2449A6
S31500000710121A00F057F8234D234B5B1B002B07DD05
S3150000072000249E1055F8043B01349847A642F9DC94
S31500000730FFF7DAFDFFF784FE0320FFF799FF00239A
S315000007404FF6FF70194903F108020133092B21F80E
S315000007501200F8D100240320FFF75AFF0320FFF709
S3150000076087FF134B03205C609C60DC601C61FFF715
S315000007704FFF0220FFF7DEFCFFF7FEFE2046BDE836
S315000007807040FFF7A7BE00BF00ED00E000000000CC
S315000007902000002094000020000000200800002017
S315000007A018090000000000200400002000FD0140A0
S315000007B000000E4002440346934200D1704703F8FE
S315000007C0011BF9E70A44431E914200D1704710B558
S315000007D011F8014B914203F8014FF9D110BDFFFF0B
S315000007E04275696C7420776974682052656E65730A
S315000007F0617320416476616E63656420466C65783A
S3150000080069626C6520536F6674776172652050610A
S31500000810636B6167652076657273696F6E20352E2E
S31500000820382E3000352E382E300000000000080526
S31500000830F8B500BFF8BC08BC9E467047F8B500BFC7
S31500000840F8BC08BC9E46704706000000540800002D
S315000008500000000000000000000000000000000092
S315000008600100000000000100080100000000010076
S315000008700003000004000000010600000400000060
S315000008800A060000020403040404FFFF000000003F
S315000008900000000000000000000000000000000052
S315000008A00000000000000000000000000000000042
S315000008B00000000000000000000000000000000032
S315000008C00000000000000000000000000000000022
S315000008D00000000000000000000000000000000012
S315000008E00000000000000000000000000000000002
S315000008F000000000000000000000000000000000F2
S3150000090000000000000000000000000001000200DE
S30D000009100800100000000000C1
S30D00000918AD000000850000009F
S3150100A100FFFFFFFFFFFFFFFFFFFFFFFFFFFFFFFF58
S3090100A110FFFFFFFF48
S3090100A134FFFFFFFF24
S3150100A200FEF1FFFFFFFFFFFFFFFFFFFFFFFFFFFF66
S3150100A210FFFFFFFFFFFFFFFFFFFFFFFFFFFFFFFF47
S3150100A220FFFFFFFFFFFFFFFFFFFFFFFFFFFFFFFF37
S3150100A230FFFFFFFFFFFFFFFFFFFFFFFFFFFFFFFF27
S3150100A240FFFFFFFFFFFFFFFFFFFFFFFFFFFFFFFF17
S3150100A250FFFFFFFFFFFFFFFFFFFFFFFFFFFFFFFF07
S3150100A260FFFFFFFFFFFFFFFFFFFFFFFFFFFFFFFFF7
S3150100A270FFFFFFFFFFFFFFFFFFFFFFFFFFFFFFFFE7
S3150100A280F8F0FFFFFFFFFFFFFFFFFFFFFFFFFFFFED
S3150100A290FFFFFFFFFFFFFFFFFFFFFFFFFFFFFFFFC7
S3150100A2A0FFFFFFFFFFFFFFFFFFFFFFFFFFFFFFFFB7
S3150100A2B0FFFFFFFFFFFFFFFFFFFFFFFFFFFFFFFFA7
S3150100A2C0FFFFFFFFFFFFFFFFFFFFFFFFFFFFFFFF97
S705000006C92B
